{
  "contractName": "CanSwapMath",
  "abi": [
    {
      "constant": true,
      "inputs": [
        {
          "name": "_input",
          "type": "uint256"
        },
        {
          "name": "_inputBal",
          "type": "uint256"
        },
        {
          "name": "_outputBal",
          "type": "uint256"
        }
      ],
      "name": "calculateSwapOutput",
      "outputs": [
        {
          "name": "output",
          "type": "uint256"
        },
        {
          "name": "emission",
          "type": "uint256"
        },
        {
          "name": "liqFee",
          "type": "uint256"
        }
      ],
      "payable": false,
      "stateMutability": "pure",
      "type": "function"
    },
    {
      "constant": true,
      "inputs": [
        {
          "name": "_input",
          "type": "uint256"
        },
        {
          "name": "_inputBal",
          "type": "uint256"
        },
        {
          "name": "_outputBal",
          "type": "uint256"
        }
      ],
      "name": "getOutput",
      "outputs": [
        {
          "name": "",
          "type": "uint256"
        }
      ],
      "payable": false,
      "stateMutability": "pure",
      "type": "function"
    },
    {
      "constant": true,
      "inputs": [
        {
          "name": "_input",
          "type": "uint256"
        },
        {
          "name": "_inputBal",
          "type": "uint256"
        },
        {
          "name": "_outputBal",
          "type": "uint256"
        }
      ],
      "name": "getLiqFee",
      "outputs": [
        {
          "name": "",
          "type": "uint256"
        }
      ],
      "payable": false,
      "stateMutability": "pure",
      "type": "function"
    }
  ],
  "bytecode": "0x61042b610030600b82828239805160001a6073146000811461002057610022565bfe5b5030600052607381538281f3fe7300000000000000000000000000000000000000003014608060405260043610610067577c0100000000000000000000000000000000000000000000000000000000600035046331e63edc811461006c5780639c4a49dd146100b35780639df8bf2f146100ee575b600080fd5b6100956004803603606081101561008257600080fd5b5080359060208101359060400135610117565b60408051938452602084019290925282820152519081900360600190f35b6100dc600480360360608110156100c957600080fd5b5080359060208101359060400135610151565b60408051918252519081900360200190f35b6100dc6004803603606081101561010457600080fd5b50803590602081013590604001356101b8565b60008060006101278686866101b8565b9250610134868686610151565b9050610146838263ffffffff6101df16565b915093509350939050565b600080610164858063ffffffff61026a16565b9050610176818463ffffffff61026a16565b9050600061018a868663ffffffff61030d16565b905061019c818063ffffffff61026a16565b90506101ae828263ffffffff61039016565b9695505050505050565b6000806101cb858463ffffffff61026a16565b9050600061019c868663ffffffff61030d16565b60008282111561025f576040805160e560020a62461bcd02815260206004820152602560248201527f526573756c74206f66207375627472616374696f6e2063616e6e6f74206f766560448201527f72666c6f77000000000000000000000000000000000000000000000000000000606482015290519081900360840190fd5b508082035b92915050565b600082151561027b57506000610264565b82820282848281151561028a57fe5b0414610306576040805160e560020a62461bcd02815260206004820152602260248201527f526573756c74206f66206164646974696f6e2063616e6e6f74206f766572666c60448201527f6f77000000000000000000000000000000000000000000000000000000000000606482015290519081900360840190fd5b9392505050565b600082820183811015610306576040805160e560020a62461bcd02815260206004820152602260248201527f526573756c74206f66206164646974696f6e2063616e6e6f74206f766572666c60448201527f6f77000000000000000000000000000000000000000000000000000000000000606482015290519081900360840190fd5b60008082116103e9576040805160e560020a62461bcd02815260206004820152601860248201527f44697669736f72206d757374206265206e6f6e207a65726f0000000000000000604482015290519081900360640190fd5b600082848115156103f657fe5b0494935050505056fea165627a7a72305820a0e44cc9a58188a76476db70953430a8440f863b21ee42c48d61b372178d2e5b0029",
  "source": "pragma solidity 0.5.1;\n\nimport \"./SafeMath.sol\";\n\nlibrary CanSwapMath {\n\n    using SafeMath for uint256;\n\n    /**\n     * @dev Internal swap calculation\n     * @param _input Amount of _from token used as deposit\n     * @param _inputBal Balance of token to swap from\n     * @param _outputBal Balance of token to swap to\n     * @return uint256 Total output from swap\n     * @return uint256 Emission from the swap\n     * @return uint256 Liquidity fee to subtract from output\n     */\n    function calculateSwapOutput(uint256 _input, uint256 _inputBal, uint256 _outputBal)\n    public\n    pure\n    returns (uint256 output, uint256 emission, uint256 liqFee) {        \n        output = getOutput(_input, _inputBal, _outputBal);\n        liqFee = getLiqFee(_input, _inputBal, _outputBal);\n        emission = output.sub(liqFee);\n    }\n    \n\n    /**\n     * @dev Get output of swap\n     * @param _input Value of input\n     * @param _inputBal Balance of input in pool\n     * @param _outputBal Balance of output in pool\n     * @return uint256 Output of the swap\n     */ \n    function getOutput(uint256 _input, uint256 _inputBal, uint256 _outputBal) \n    public \n    pure \n    returns (uint256) {\n        uint256 numerator = _input.mul(_outputBal);\n        uint256 denom = _input.add(_inputBal);\n        return numerator.div(denom);\n    }\n\n    /**\n     * @dev Get liquidity fee from swap\n     * @param _input Value of input\n     * @param _inputBal Balance of input in pool\n     * @param _outputBal Balance of output in pool\n     * @return uint256 Liquidity fee of the swap\n     */\n    function getLiqFee(uint256 _input, uint256 _inputBal, uint256 _outputBal) \n    public \n    pure \n    returns (uint256) {\n        uint256 numerator = _input.mul(_input);\n        numerator = numerator.mul(_outputBal);\n        uint256 denom = _input.add(_inputBal);\n        denom = denom.mul(denom);\n        return numerator.div(denom);\n    }\n}",
  "sourcePath": "/home/alex/projects/canya/canswap-contracts/contracts/CanSwapMath.sol",
  "compiler": {
    "name": "solc",
    "version": "0.5.1+commit.c8a2cb62.Emscripten.clang"
  },
  "schemaVersion": "3.0.1",
  "updatedAt": "2019-01-18T06:31:40.243Z",
  "devdoc": {
    "methods": {
      "calculateSwapOutput(uint256,uint256,uint256)": {
        "details": "Internal swap calculation",
        "params": {
          "_input": "Amount of _from token used as deposit",
          "_inputBal": "Balance of token to swap from",
          "_outputBal": "Balance of token to swap to"
        },
        "return": "uint256 Total output from swapuint256 Emission from the swapuint256 Liquidity fee to subtract from output"
      },
      "getLiqFee(uint256,uint256,uint256)": {
        "details": "Get liquidity fee from swap",
        "params": {
          "_input": "Value of input",
          "_inputBal": "Balance of input in pool",
          "_outputBal": "Balance of output in pool"
        },
        "return": "uint256 Liquidity fee of the swap"
      },
      "getOutput(uint256,uint256,uint256)": {
        "details": "Get output of swap",
        "params": {
          "_input": "Value of input",
          "_inputBal": "Balance of input in pool",
          "_outputBal": "Balance of output in pool"
        },
        "return": "uint256 Output of the swap"
      }
    }
  },
  "userdoc": {
    "methods": {}
  }
}