{
  "contractName": "CanSwap",
  "abi": [
    {
      "constant": true,
      "inputs": [],
      "name": "CAN",
      "outputs": [
        {
          "name": "",
          "type": "address"
        }
      ],
      "payable": false,
      "stateMutability": "view",
      "type": "function"
    },
    {
      "constant": false,
      "inputs": [],
      "name": "renounceOwnership",
      "outputs": [],
      "payable": false,
      "stateMutability": "nonpayable",
      "type": "function"
    },
    {
      "constant": true,
      "inputs": [],
      "name": "owner",
      "outputs": [
        {
          "name": "",
          "type": "address"
        }
      ],
      "payable": false,
      "stateMutability": "view",
      "type": "function"
    },
    {
      "constant": true,
      "inputs": [],
      "name": "isOwner",
      "outputs": [
        {
          "name": "",
          "type": "bool"
        }
      ],
      "payable": false,
      "stateMutability": "view",
      "type": "function"
    },
    {
      "constant": false,
      "inputs": [
        {
          "name": "newOwner",
          "type": "address"
        }
      ],
      "name": "transferOwnership",
      "outputs": [],
      "payable": false,
      "stateMutability": "nonpayable",
      "type": "function"
    },
    {
      "constant": true,
      "inputs": [],
      "name": "poolCount",
      "outputs": [
        {
          "name": "",
          "type": "uint16"
        }
      ],
      "payable": false,
      "stateMutability": "view",
      "type": "function"
    },
    {
      "anonymous": false,
      "inputs": [
        {
          "indexed": true,
          "name": "pool",
          "type": "address"
        },
        {
          "indexed": false,
          "name": "uri",
          "type": "string"
        },
        {
          "indexed": false,
          "name": "api",
          "type": "string"
        }
      ],
      "name": "eventPoolCreated",
      "type": "event"
    },
    {
      "anonymous": false,
      "inputs": [
        {
          "indexed": true,
          "name": "pool",
          "type": "address"
        },
        {
          "indexed": false,
          "name": "uri",
          "type": "string"
        },
        {
          "indexed": false,
          "name": "api",
          "type": "string"
        }
      ],
      "name": "eventPoolDetailsUpdated",
      "type": "event"
    },
    {
      "anonymous": false,
      "inputs": [
        {
          "indexed": true,
          "name": "pool",
          "type": "address"
        },
        {
          "indexed": false,
          "name": "threshold",
          "type": "uint8"
        }
      ],
      "name": "eventPoolMinimumStakeUpdated",
      "type": "event"
    },
    {
      "anonymous": false,
      "inputs": [
        {
          "indexed": true,
          "name": "pool",
          "type": "address"
        },
        {
          "indexed": false,
          "name": "activated",
          "type": "bool"
        }
      ],
      "name": "eventPoolActivationChanged",
      "type": "event"
    },
    {
      "anonymous": false,
      "inputs": [
        {
          "indexed": true,
          "name": "pool",
          "type": "address"
        },
        {
          "indexed": true,
          "name": "staker",
          "type": "address"
        }
      ],
      "name": "eventStakerAddedToPool",
      "type": "event"
    },
    {
      "anonymous": false,
      "inputs": [
        {
          "indexed": true,
          "name": "pool",
          "type": "address"
        },
        {
          "indexed": true,
          "name": "staker",
          "type": "address"
        },
        {
          "indexed": false,
          "name": "amountTkn",
          "type": "uint256"
        },
        {
          "indexed": false,
          "name": "amountCan",
          "type": "uint256"
        }
      ],
      "name": "eventStakeAdded",
      "type": "event"
    },
    {
      "anonymous": false,
      "inputs": [
        {
          "indexed": true,
          "name": "pool",
          "type": "address"
        }
      ],
      "name": "eventPoolFeesDistributed",
      "type": "event"
    },
    {
      "anonymous": false,
      "inputs": [
        {
          "indexed": true,
          "name": "pool",
          "type": "address"
        },
        {
          "indexed": true,
          "name": "staker",
          "type": "address"
        }
      ],
      "name": "eventStakerWithdrawnFromPool",
      "type": "event"
    },
    {
      "anonymous": false,
      "inputs": [
        {
          "indexed": true,
          "name": "pool",
          "type": "address"
        },
        {
          "indexed": true,
          "name": "staker",
          "type": "address"
        }
      ],
      "name": "eventStakerWithdrawnFeesFromPool",
      "type": "event"
    },
    {
      "anonymous": false,
      "inputs": [
        {
          "indexed": true,
          "name": "fromToken",
          "type": "address"
        },
        {
          "indexed": true,
          "name": "toToken",
          "type": "address"
        },
        {
          "indexed": false,
          "name": "swapper",
          "type": "address"
        },
        {
          "indexed": false,
          "name": "recipient",
          "type": "address"
        },
        {
          "indexed": false,
          "name": "fromValue",
          "type": "uint256"
        },
        {
          "indexed": false,
          "name": "toValue",
          "type": "uint256"
        }
      ],
      "name": "eventSwapExecuted",
      "type": "event"
    },
    {
      "anonymous": false,
      "inputs": [
        {
          "indexed": true,
          "name": "previousOwner",
          "type": "address"
        }
      ],
      "name": "OwnershipRenounced",
      "type": "event"
    },
    {
      "anonymous": false,
      "inputs": [
        {
          "indexed": true,
          "name": "previousOwner",
          "type": "address"
        },
        {
          "indexed": true,
          "name": "newOwner",
          "type": "address"
        }
      ],
      "name": "OwnershipTransferred",
      "type": "event"
    },
    {
      "constant": false,
      "inputs": [
        {
          "name": "_canToken",
          "type": "address"
        }
      ],
      "name": "initialize",
      "outputs": [],
      "payable": false,
      "stateMutability": "nonpayable",
      "type": "function"
    },
    {
      "constant": false,
      "inputs": [
        {
          "name": "_token",
          "type": "address"
        },
        {
          "name": "_uri",
          "type": "string"
        },
        {
          "name": "_api",
          "type": "string"
        },
        {
          "name": "_amountTkn",
          "type": "uint256"
        },
        {
          "name": "_amountCan",
          "type": "uint256"
        }
      ],
      "name": "createPoolForToken",
      "outputs": [],
      "payable": true,
      "stateMutability": "payable",
      "type": "function"
    },
    {
      "constant": false,
      "inputs": [
        {
          "name": "_pool",
          "type": "address"
        },
        {
          "name": "_uri",
          "type": "string"
        },
        {
          "name": "_api",
          "type": "string"
        }
      ],
      "name": "updatePoolDetails",
      "outputs": [],
      "payable": false,
      "stateMutability": "nonpayable",
      "type": "function"
    },
    {
      "constant": false,
      "inputs": [
        {
          "name": "_pool",
          "type": "address"
        },
        {
          "name": "_threshold",
          "type": "uint8"
        }
      ],
      "name": "updateMinimumStakeThreshold",
      "outputs": [],
      "payable": false,
      "stateMutability": "nonpayable",
      "type": "function"
    },
    {
      "constant": false,
      "inputs": [
        {
          "name": "_pool",
          "type": "address"
        }
      ],
      "name": "activatePool",
      "outputs": [],
      "payable": false,
      "stateMutability": "nonpayable",
      "type": "function"
    },
    {
      "constant": false,
      "inputs": [
        {
          "name": "_pool",
          "type": "address"
        }
      ],
      "name": "deactivatePool",
      "outputs": [],
      "payable": false,
      "stateMutability": "nonpayable",
      "type": "function"
    },
    {
      "constant": false,
      "inputs": [
        {
          "name": "_pool",
          "type": "address"
        },
        {
          "name": "_amountTkn",
          "type": "uint256"
        },
        {
          "name": "_amountCan",
          "type": "uint256"
        }
      ],
      "name": "stakeInPool",
      "outputs": [
        {
          "name": "success",
          "type": "bool"
        }
      ],
      "payable": true,
      "stateMutability": "payable",
      "type": "function"
    },
    {
      "constant": false,
      "inputs": [
        {
          "name": "_pool",
          "type": "address"
        },
        {
          "name": "_amountTkn",
          "type": "uint256"
        },
        {
          "name": "_amountCan",
          "type": "uint256"
        }
      ],
      "name": "addStakeInPool",
      "outputs": [
        {
          "name": "success",
          "type": "bool"
        }
      ],
      "payable": true,
      "stateMutability": "payable",
      "type": "function"
    },
    {
      "constant": true,
      "inputs": [
        {
          "name": "_pool",
          "type": "address"
        }
      ],
      "name": "getAllocationReward",
      "outputs": [
        {
          "name": "rewardTKN",
          "type": "uint256"
        },
        {
          "name": "rewardCAN",
          "type": "uint256"
        }
      ],
      "payable": false,
      "stateMutability": "view",
      "type": "function"
    },
    {
      "constant": false,
      "inputs": [
        {
          "name": "_pool",
          "type": "address"
        }
      ],
      "name": "allocateFees",
      "outputs": [],
      "payable": false,
      "stateMutability": "nonpayable",
      "type": "function"
    },
    {
      "constant": false,
      "inputs": [
        {
          "name": "_pool",
          "type": "address"
        }
      ],
      "name": "withdrawFromPool",
      "outputs": [],
      "payable": false,
      "stateMutability": "nonpayable",
      "type": "function"
    },
    {
      "constant": false,
      "inputs": [
        {
          "name": "_pool",
          "type": "address"
        }
      ],
      "name": "withdrawFees",
      "outputs": [],
      "payable": false,
      "stateMutability": "nonpayable",
      "type": "function"
    },
    {
      "constant": false,
      "inputs": [
        {
          "name": "_from",
          "type": "address"
        },
        {
          "name": "_to",
          "type": "address"
        },
        {
          "name": "_value",
          "type": "uint256"
        }
      ],
      "name": "swap",
      "outputs": [],
      "payable": true,
      "stateMutability": "payable",
      "type": "function"
    },
    {
      "constant": true,
      "inputs": [
        {
          "name": "_from",
          "type": "address"
        },
        {
          "name": "_to",
          "type": "address"
        },
        {
          "name": "_value",
          "type": "uint256"
        }
      ],
      "name": "caculateSwapEmission",
      "outputs": [
        {
          "name": "tokensEmitted",
          "type": "uint256"
        },
        {
          "name": "feeSingleSwap",
          "type": "uint256"
        },
        {
          "name": "feeDoubleSwap",
          "type": "uint256"
        }
      ],
      "payable": false,
      "stateMutability": "view",
      "type": "function"
    },
    {
      "constant": false,
      "inputs": [
        {
          "name": "_from",
          "type": "address"
        },
        {
          "name": "_to",
          "type": "address"
        },
        {
          "name": "_value",
          "type": "uint256"
        },
        {
          "name": "_recipient",
          "type": "address"
        }
      ],
      "name": "swapAndSend",
      "outputs": [],
      "payable": true,
      "stateMutability": "payable",
      "type": "function"
    },
    {
      "constant": true,
      "inputs": [
        {
          "name": "_pool",
          "type": "address"
        }
      ],
      "name": "getPoolMeta",
      "outputs": [
        {
          "name": "uri",
          "type": "string"
        },
        {
          "name": "api",
          "type": "string"
        },
        {
          "name": "active",
          "type": "bool"
        },
        {
          "name": "minimumStake",
          "type": "uint8"
        }
      ],
      "payable": false,
      "stateMutability": "view",
      "type": "function"
    },
    {
      "constant": true,
      "inputs": [
        {
          "name": "_poolId",
          "type": "uint16"
        }
      ],
      "name": "getPoolMetaById",
      "outputs": [
        {
          "name": "token",
          "type": "address"
        },
        {
          "name": "uri",
          "type": "string"
        },
        {
          "name": "api",
          "type": "string"
        },
        {
          "name": "active",
          "type": "bool"
        },
        {
          "name": "minimumStake",
          "type": "uint8"
        }
      ],
      "payable": false,
      "stateMutability": "view",
      "type": "function"
    },
    {
      "constant": true,
      "inputs": [
        {
          "name": "_pool",
          "type": "address"
        }
      ],
      "name": "getPoolBalance",
      "outputs": [
        {
          "name": "balTKN",
          "type": "uint256"
        },
        {
          "name": "balCAN",
          "type": "uint256"
        },
        {
          "name": "feeTKN",
          "type": "uint256"
        },
        {
          "name": "feeCAN",
          "type": "uint256"
        }
      ],
      "payable": false,
      "stateMutability": "view",
      "type": "function"
    },
    {
      "constant": true,
      "inputs": [],
      "name": "getPoolBalances",
      "outputs": [
        {
          "name": "token",
          "type": "address[]"
        },
        {
          "name": "active",
          "type": "bool[]"
        },
        {
          "name": "balTKN",
          "type": "uint256[]"
        },
        {
          "name": "balCAN",
          "type": "uint256[]"
        },
        {
          "name": "feeTKN",
          "type": "uint256[]"
        },
        {
          "name": "feeCAN",
          "type": "uint256[]"
        }
      ],
      "payable": false,
      "stateMutability": "view",
      "type": "function"
    },
    {
      "constant": true,
      "inputs": [
        {
          "name": "_staker",
          "type": "address"
        }
      ],
      "name": "getStakersPools",
      "outputs": [
        {
          "name": "pools",
          "type": "address[]"
        },
        {
          "name": "stakeTKN",
          "type": "uint256[]"
        },
        {
          "name": "stakeCAN",
          "type": "uint256[]"
        },
        {
          "name": "rewardTKN",
          "type": "uint256[]"
        },
        {
          "name": "rewardCAN",
          "type": "uint256[]"
        }
      ],
      "payable": false,
      "stateMutability": "view",
      "type": "function"
    },
    {
      "constant": true,
      "inputs": [
        {
          "name": "_pool",
          "type": "address"
        },
        {
          "name": "_staker",
          "type": "address"
        }
      ],
      "name": "getStakersStake",
      "outputs": [
        {
          "name": "stakeTKN",
          "type": "uint256"
        },
        {
          "name": "stakeCAN",
          "type": "uint256"
        },
        {
          "name": "rewardTKN",
          "type": "uint256"
        },
        {
          "name": "rewardCAN",
          "type": "uint256"
        }
      ],
      "payable": false,
      "stateMutability": "view",
      "type": "function"
    }
  ],
  "bytecode": "0x608060405234801561001057600080fd5b50614bac806100206000396000f3fe6080604052600436106101b9576000357c010000000000000000000000000000000000000000000000000000000090048063715018a611610109578063cac556ef116100a7578063d8c1d91211610081578063d8c1d91214610cca578063df791e5014610cfd578063f2fde38b14610d33578063f525cb6814610d66576101b9565b8063cac556ef14610c32578063d28682ea14610c65578063d3ecfb9b14610c98576101b9565b80638da5cb5b116100e35780638da5cb5b14610af65780638f32d59b14610b0b57806394a8eb5214610b20578063c4d66de814610bff576101b9565b8063715018a614610a4d5780637649298714610a625780638bf9c37814610ac3576101b9565b806333bb347a11610176578063432f0d5b11610150578063432f0d5b146107ab57806352375bb11461080c57806365c05106146109ce578063673e1e5514610a01576101b9565b806333bb347a146104a25780633ae6ff8b1461063d5780633d280c7d14610679576101b9565b80630282667a146101be578063045de37f146102e2578063074365b1146103bc578063077b2e0f146104025780630b51588d14610433578063164e68de1461046f575b600080fd5b3480156101ca57600080fd5b506101f1600480360360208110156101e157600080fd5b5035600160a060020a0316610d92565b604080518315159181019190915260ff8216606082015260808082528551908201528451819060208083019160a084019189019080838360005b8381101561024357818101518382015260200161022b565b50505050905090810190601f1680156102705780820380516001836020036101000a031916815260200191505b50838103825286518152865160209182019188019080838360005b838110156102a357818101518382015260200161028b565b50505050905090810190601f1680156102d05780820380516001836020036101000a031916815260200191505b50965050505050505060405180910390f35b6103ba600480360360a08110156102f857600080fd5b600160a060020a03823516919081019060408101602082013564010000000081111561032357600080fd5b82018360208201111561033557600080fd5b8035906020019184600183028401116401000000008311171561035757600080fd5b91939092909160208101903564010000000081111561037557600080fd5b82018360208201111561038757600080fd5b803590602001918460018302840111640100000000831117156103a957600080fd5b919350915080359060200135610fbf565b005b6103ee600480360360608110156103d257600080fd5b50600160a060020a03813516906020810135906040013561136c565b604080519115158252519081900360200190f35b34801561040e57600080fd5b50610417611780565b60408051600160a060020a039092168252519081900360200190f35b6103ba6004803603608081101561044957600080fd5b50600160a060020a0381358116916020810135821691604082013591606001351661178f565b34801561047b57600080fd5b506103ba6004803603602081101561049257600080fd5b5035600160a060020a03166117eb565b3480156104ae57600080fd5b506104d5600480360360208110156104c557600080fd5b5035600160a060020a03166119e8565b60405180806020018060200180602001806020018060200186810386528b818151815260200191508051906020019060200280838360005b8381101561052557818101518382015260200161050d565b5050505090500186810385528a818151815260200191508051906020019060200280838360005b8381101561056457818101518382015260200161054c565b50505050905001868103845289818151815260200191508051906020019060200280838360005b838110156105a357818101518382015260200161058b565b50505050905001868103835288818151815260200191508051906020019060200280838360005b838110156105e25781810151838201526020016105ca565b50505050905001868103825287818151815260200191508051906020019060200280838360005b83811015610621578181015183820152602001610609565b505050509050019a505050505050505050505060405180910390f35b34801561064957600080fd5b506103ba6004803603604081101561066057600080fd5b508035600160a060020a0316906020013560ff16611c16565b34801561068557600080fd5b506106a76004803603602081101561069c57600080fd5b503561ffff16611dd6565b60408051600160a060020a0387168152831515606082015260ff8316608082015260a060208083018281528851928401929092528751929391929184019160c085019189019080838360005b8381101561070b5781810151838201526020016106f3565b50505050905090810190601f1680156107385780820380516001836020036101000a031916815260200191505b50838103825286518152865160209182019188019080838360005b8381101561076b578181015183820152602001610753565b50505050905090810190601f1680156107985780820380516001836020036101000a031916815260200191505b5097505050505050505060405180910390f35b3480156107b757600080fd5b506107e6600480360360408110156107ce57600080fd5b50600160a060020a0381358116916020013516611e14565b604080519485526020850193909352838301919091526060830152519081900360800190f35b34801561081857600080fd5b50610821611f59565b6040518080602001806020018060200180602001806020018060200187810387528d818151815260200191508051906020019060200280838360005b8381101561087557818101518382015260200161085d565b5050505090500187810386528c818151815260200191508051906020019060200280838360005b838110156108b457818101518382015260200161089c565b5050505090500187810385528b818151815260200191508051906020019060200280838360005b838110156108f35781810151838201526020016108db565b5050505090500187810384528a818151815260200191508051906020019060200280838360005b8381101561093257818101518382015260200161091a565b50505050905001878103835289818151815260200191508051906020019060200280838360005b83811015610971578181015183820152602001610959565b50505050905001878103825288818151815260200191508051906020019060200280838360005b838110156109b0578181015183820152602001610998565b505050509050019c5050505050505050505050505060405180910390f35b3480156109da57600080fd5b506103ba600480360360208110156109f157600080fd5b5035600160a060020a031661228f565b348015610a0d57600080fd5b50610a3460048036036020811015610a2457600080fd5b5035600160a060020a0316612362565b6040805192835260208301919091528051918290030190f35b348015610a5957600080fd5b506103ba612539565b348015610a6e57600080fd5b50610aa560048036036060811015610a8557600080fd5b50600160a060020a038135811691602081013590911690604001356125a3565b60408051938452602084019290925282820152519081900360600190f35b348015610acf57600080fd5b506103ba60048036036020811015610ae657600080fd5b5035600160a060020a0316612696565b348015610b0257600080fd5b506104176126a3565b348015610b1757600080fd5b506103ee6126b3565b348015610b2c57600080fd5b506103ba60048036036060811015610b4357600080fd5b600160a060020a038235169190810190604081016020820135640100000000811115610b6e57600080fd5b820183602082011115610b8057600080fd5b80359060200191846001830284011164010000000083111715610ba257600080fd5b919390929091602081019035640100000000811115610bc057600080fd5b820183602082011115610bd257600080fd5b80359060200191846001830284011164010000000083111715610bf457600080fd5b5090925090506126c4565b348015610c0b57600080fd5b506103ba60048036036020811015610c2257600080fd5b5035600160a060020a0316612915565b348015610c3e57600080fd5b506103ba60048036036020811015610c5557600080fd5b5035600160a060020a0316612a07565b348015610c7157600080fd5b506107e660048036036020811015610c8857600080fd5b5035600160a060020a0316612af1565b6103ee60048036036060811015610cae57600080fd5b50600160a060020a038135169060208101359060400135612be7565b348015610cd657600080fd5b506103ba60048036036020811015610ced57600080fd5b5035600160a060020a0316612dcd565b6103ba60048036036060811015610d1357600080fd5b50600160a060020a03813581169160208101359091169060400135612f6c565b348015610d3f57600080fd5b506103ba60048036036020811015610d5657600080fd5b5035600160a060020a0316612f7d565b348015610d7257600080fd5b50610d7b612f99565b6040805161ffff9092168252519081900360200190f35b600160a060020a03811660009081526037602052604081205460609182918190859060ff161515610dfb576040805160e560020a62461bcd02815260206004820152600f6024820152600080516020614b01833981519152604482015290519081900360640190fd5b610e0361471a565b600160a060020a0387166000908152603660209081526040918290208251815460026001821615610100026000190190911604601f8101849004909302810160609081018552938101838152909391928492849190840182828015610ea95780601f10610e7e57610100808354040283529160200191610ea9565b820191906000526020600020905b815481529060010190602001808311610e8c57829003601f168201915b50505050508152602001600182018054600181600116156101000203166002900480601f016020809104026020016040519081016040528092919081815260200182805460018160011615610100020316600290048015610f4b5780601f10610f2057610100808354040283529160200191610f4b565b820191906000526020600020905b815481529060010190602001808311610f2e57829003601f168201915b5050505050815250509050610f5e614731565b50600160a060020a0396909616600081815260376020908152604080832081518083018352905460ff80821615158352610100909104811615159184018290528b519b840151958552603a9093529220549899929891975016945092505050565b600160a060020a03871660009081526037602052604090205460ff1615611030576040805160e560020a62461bcd02815260206004820152601360248201527f506f6f6c206d757374206e6f7420657869737400000000000000000000000000604482015290519081900360640190fd5b600082116110725760405160e560020a62461bcd0281526004018080602001828103825260218152602001806148c26021913960400191505060405180910390fd5b600081116110b45760405160e560020a62461bcd0281526004018080602001828103825260218152602001806148a16021913960400191505060405180910390fd5b60345461ffff74010000000000000000000000000000000000000000909104166000908152603560209081526040918290208054600160a060020a038b1673ffffffffffffffffffffffffffffffffffffffff1990911617905581516060601f890183900490920281018201835291820187815282918990899081908501838280828437600092019190915250505090825250604080516020601f8801819004810282018101909252868152918101919087908790819084018382808284376000920182905250939094525050600160a060020a038a168152603660209081526040909120835180519193506111ae928492910190614748565b5060208281015180516111c79260018501920190614748565b505060408051808201825260018082526020808301828152600160a060020a038d1660008181526037845286812095518654935115156101000261ff001991151560ff19958616179190911617909555603a8352938590208054909116600a1790556034805461ffff7401000000000000000000000000000000000000000080830482169095011690930275ffff0000000000000000000000000000000000000000199093169290921790915582518381529283018990529092507fcc8a7b99b0da38982b9022b5bc991ca1ba36ee19cc53057049bc9e24a72221e5918991899189918991908190810160608201878780828437600083820152601f01601f191690910184810383528581526020019050858580828437600083820152604051601f909101601f19169092018290039850909650505050505050a261130d87838361136c565b1515611363576040805160e560020a62461bcd02815260206004820152601860248201527f5374616b65206d757374206265207375636365737366756c0000000000000000604482015290519081900360640190fd5b50505050505050565b600160a060020a0383166000908152603760205260408120548490610100900460ff16806113a75750603454600160a060020a038281169116145b15156113eb576040805160e560020a62461bcd028152602060048201526013602482015260008051602061483e833981519152604482015290519081900360640190fd5b60008411806113fa5750600083115b1515611450576040805160e560020a62461bcd02815260206004820152601c60248201527f4d75737420696e636c75646520616e2061637475616c207374616b6500000000604482015290519081900360640190fd5b61145a8533612fbb565b156114af576040805160e560020a62461bcd02815260206004820152601f60248201527f557365722063616e6e6f7420616c72656164792062652061207374616b657200604482015290519081900360640190fd5b6114b7614731565b5060408051808201909152848152602081018490526114d4614731565b50600160a060020a0386166000908152603860209081526040808320815180830190925280548083526001909101549282019290925291108061151b575060008160200151115b156115d557611528614731565b6040805180820190915282518190611546908a63ffffffff61302116565b815260200161156288856020015161302190919063ffffffff16565b9052905060006115728285613068565b600160a060020a038a166000908152603a602052604090205490915060ff168110156115d25760405160e560020a62461bcd02815260040180806020018281038252603d8152602001806147e1603d913960400191505060405180910390fd5b50505b6115de87613119565b6115e98787876133b5565b336000908152604160209081526040808320600160a060020a038b16845290915290205460ff16151561170557600160a060020a0387166000818152603c60209081526040808320603b8352818420805461ffff9081168652918452828520805473ffffffffffffffffffffffffffffffffffffffff199081163390811790925582548085166001908101861661ffff1992831617909455828852604187528588208989528752858820805460ff191685179055828852858752858820603f808952878a20805488168b52918952878a2080549094168b1790935583895291909652805480851690930190931691909416179055519092917f723886ab8401a7937e42c9dc037caac8f96d5ac8d00bc7c2afa41924f0eb6cbe91a35b600160a060020a0387166000818152603d602090815260408083203380855290835292819020865181558287015160019091015580518a815291820189905280519293927f92eac844fca3589ac95a8cb7a1e314d2393dbae02a021c024586ce431739c8eb9281900390910190a35060019695505050505050565b603454600160a060020a031681565b600160a060020a03811615156117d95760405160e560020a62461bcd028152600401808060200182810382526023815260200180614ade6023913960400191505060405180910390fd5b6117e58484848461368a565b50505050565b600160a060020a038116600090815260376020526040902054819060ff16151561184d576040805160e560020a62461bcd02815260206004820152600f6024820152600080516020614b01833981519152604482015290519081900360640190fd5b81336118598282612fbb565b151561189d576040805160e560020a62461bcd02815260206004820152601b602482015260008051602061481e833981519152604482015290519081900360640190fd5b6118a5614731565b50600160a060020a0384166000908152603e60209081526040808320338452825291829020825180840190935280548084526001918201549284019290925210806118f4575060018160200151115b15156119345760405160e560020a62461bcd0281526004018080602001828103825260288152602001806149d76028913960400191505060405180910390fd5b60408051808201825260018082526020808301828152600160a060020a038a166000908152603e8352858120338083529352949094209251835592519181019190915582516119ab92889290916119909163ffffffff613bb316565b60208501516119a690600163ffffffff613bb316565b613bfd565b6040513390600160a060020a038716907f48cd74d479e1524158b22d928412bfe6ea5e82e80c08e94d9a4a03d640191ab990600090a35050505050565b600160a060020a0381166000908152603f602090815260409182902054825161ffff90911680825280830282019092019092526060918291829182918291818015611a3d578160200160208202803883390190505b5095508061ffff16604051908082528060200260200182016040528015611a6e578160200160208202803883390190505b5094508061ffff16604051908082528060200260200182016040528015611a9f578160200160208202803883390190505b5093508061ffff16604051908082528060200260200182016040528015611ad0578160200160208202803883390190505b5092508061ffff16604051908082528060200260200182016040528015611b01578160200160208202803883390190505b50915060005b8161ffff168161ffff161015611c0b57600160a060020a0380891660009081526040602081815281832061ffff8616808552915291205489519216918991908110611b4e57fe5b600160a060020a039092166020928302909101909101528651611b8b90889061ffff8416908110611b7b57fe5b9060200190602002015189611e14565b898561ffff16815181101515611b9d57fe5b906020019060200201898661ffff16815181101515611bb857fe5b906020019060200201898761ffff16815181101515611bd357fe5b906020019060200201898861ffff16815181101515611bee57fe5b602090810290910101939093529290915291905252600101611b07565b505091939590929450565b600160a060020a038216600090815260376020526040902054829060ff161515611c78576040805160e560020a62461bcd02815260206004820152600f6024820152600080516020614b01833981519152604482015290519081900360640190fd5b600160a060020a038084166000908152603c60209081526040808320838052909152902054849116331480611cb05750611cb06126b3565b1515611d06576040805160e560020a62461bcd02815260206004820181905260248201527f55736572206d7573742062652063726561746f72206f662074686520706f6f6c604482015290519081900360640190fd5b60008360ff1610158015611d1d575060648360ff16105b1515611d73576040805160e560020a62461bcd02815260206004820152601f60248201527f5468726573686f6c64206d757374206265203e3d2030202626203c2031303000604482015290519081900360640190fd5b600160a060020a0384166000818152603a6020908152604091829020805460ff191660ff8816908117909155825190815291517f898bef1f92aed5d22beb9f6c8ff281f097caec9b05634c648e430693fcd29b9e9281900390910190a250505050565b61ffff8116600090815260356020526040812054600160a060020a031690606090819080611e0385610d92565b979992985090969095509350915050565b6000806000808585611e268282612fbb565b1515611e6a576040805160e560020a62461bcd02815260206004820152601b602482015260008051602061481e833981519152604482015290519081900360640190fd5b611e72614731565b50600160a060020a038089166000908152603d60209081526040808320938b168352928152908290208251808401909352805483526001015490820152611eb7614731565b50600160a060020a03808a166000908152603e60209081526040808320938c16835292815290829020825180840190935280548084526001918201549284019290925211611f14578051611f1290600163ffffffff613bb316565b505b6020810151600111611f38576020810151611f3690600163ffffffff613bb316565b505b815160209283015182519290930151909b929a509098509650945050505050565b606080606080606080603460149054906101000a900461ffff1661ffff16604051908082528060200260200182016040528015611fa0578160200160208202803883390190505b509550603460149054906101000a900461ffff1661ffff16604051908082528060200260200182016040528015611fe1578160200160208202803883390190505b509450603460149054906101000a900461ffff1661ffff16604051908082528060200260200182016040528015612022578160200160208202803883390190505b509350603460149054906101000a900461ffff1661ffff16604051908082528060200260200182016040528015612063578160200160208202803883390190505b509250603460149054906101000a900461ffff1661ffff166040519080825280602002602001820160405280156120a4578160200160208202803883390190505b509150603460149054906101000a900461ffff1661ffff166040519080825280602002602001820160405280156120e5578160200160208202803883390190505b50905060005b60345461ffff74010000000000000000000000000000000000000000909104811690821610156122865761ffff81166000818152603560205260409020548851600160a060020a03909116918991811061214157fe5b600160a060020a03909216602092830290910190910152612160614731565b60376000898461ffff1681518110151561217657fe5b6020908102909101810151600160a060020a0316825281810192909252604090810160002081518083019092525460ff808216151583526101009091041615159181018290528851909250889061ffff85169081106121d157fe5b911515602092830290910190910152875161220590899061ffff85169081106121f657fe5b90602001906020020151612af1565b898661ffff1681518110151561221757fe5b906020019060200201898761ffff1681518110151561223257fe5b906020019060200201898861ffff1681518110151561224d57fe5b906020019060200201898961ffff1681518110151561226857fe5b602090810290910101939093529290915291905252506001016120eb565b50909192939495565b6122976126b3565b15156122a257600080fd5b600160a060020a0381166000908152603760205260409020805460ff1680156122d157508054610100900460ff165b1515612315576040805160e560020a62461bcd028152602060048201526013602482015260008051602061483e833981519152604482015290519081900360640190fd5b805461ff001916815560408051600081529051600160a060020a038416917fdcc756cf520b1f92a4182714d3ef602648734c26a73fc13c9a91ff5fc39b8d1e919081900360200190a25050565b600160a060020a0381166000908152603760205260408120548190839060ff1615156123c6576040805160e560020a62461bcd02815260206004820152600f6024820152600080516020614b01833981519152604482015290519081900360640190fd5b83336123d28282612fbb565b1515612416576040805160e560020a62461bcd02815260206004820152601b602482015260008051602061481e833981519152604482015290519081900360640190fd5b61241e614731565b50600160a060020a03861660009081526039602090815260408083208151808301909252805480835260019091015492820192909252911080612465575060008160200151115b15156124a55760405160e560020a62461bcd028152600401808060200182810382526021815260200180614a5a6021913960400191505060405180910390fd5b6124ad614731565b50600160a060020a03871660009081526038602090815260409182902082518084019093528054835260010154908201526124e6614731565b50600160a060020a0388166000908152603d60209081526040808320338452825291829020825180840190935280548352600101549082015261252a838383613e53565b97509750505050505050915091565b6125416126b3565b151561254c57600080fd5b603354604051600160a060020a03909116907ff8df31144d9c2f0f6b59d69b8b98abd5459d07f2742c4df920b25aae33c6482090600090a26033805473ffffffffffffffffffffffffffffffffffffffff19169055565b600080808084116125e85760405160e560020a62461bcd0281526004018080602001828103825260218152602001806148806021913960400191505060405180910390fd5b5050603454600091508190819081908190600160a060020a038981169116148061261f5750603454600160a060020a038881169116145b156126415761262f888888613ee3565b909650945085925084915061268b9050565b603454600090819061265e908b90600160a060020a03168a613ee3565b60345490985090935087925061267f9150600160a060020a03168a84613ee3565b90985095508794505050505b505093509350939050565b6126a08133613fed565b50565b603354600160a060020a03165b90565b603354600160a060020a0316331490565b600160a060020a038516600090815260376020526040902054859060ff161515612726576040805160e560020a62461bcd02815260206004820152600f6024820152600080516020614b01833981519152604482015290519081900360640190fd5b600160a060020a038087166000908152603c6020908152604080832083805290915290205487911633148061275e575061275e6126b3565b15156127b4576040805160e560020a62461bcd02815260206004820181905260248201527f55736572206d7573742062652063726561746f72206f662074686520706f6f6c604482015290519081900360640190fd5b6040805160606020601f89018190040282018101835291810187815290918291908990899081908501838280828437600092019190915250505090825250604080516020601f8801819004810282018101909252868152918101919087908790819084018382808284376000920182905250939094525050600160a060020a038a16815260366020908152604090912083518051919350612859928492910190614748565b5060208281015180516128729260018501920190614748565b5090505086600160a060020a03167f74ca1d5eb8089b90a7844178edbd0aa540b78bb6ac25f63a9b1de5490077da7a878787876040518080602001806020018381038352878782818152602001925080828437600083820152601f01601f191690910184810383528581526020019050858580828437600083820152604051601f909101601f19169092018290039850909650505050505050a250505050505050565b600054610100900460ff168061292e575061292e614312565b8061293c575060005460ff16155b151561297c5760405160e560020a62461bcd02815260040180806020018281038252602e815260200180614a7b602e913960400191505060405180910390fd5b60008054600161010061ff00198316811760ff1916919091179092550460ff166129a533614318565b6034805475ffff000000000000000000000000000000000000000019600160a060020a0390941673ffffffffffffffffffffffffffffffffffffffff199091161792909216909155600080549115156101000261ff0019909216919091179055565b612a0f6126b3565b1515612a1a57600080fd5b600160a060020a0381166000908152603760205260409020805460ff168015612a4a57508054610100900460ff16155b1515612aa0576040805160e560020a62461bcd02815260206004820152601560248201527f506f6f6c206d75737420626520696e6163746976650000000000000000000000604482015290519081900360640190fd5b805461ff00191661010017815560408051600181529051600160a060020a038416917fdcc756cf520b1f92a4182714d3ef602648734c26a73fc13c9a91ff5fc39b8d1e919081900360200190a25050565b600160a060020a038116600090815260376020526040812054819081908190859060ff161515612b59576040805160e560020a62461bcd02815260206004820152600f6024820152600080516020614b01833981519152604482015290519081900360640190fd5b612b61614731565b50600160a060020a0386166000908152603860209081526040918290208251808401909352805483526001015490820152612b9a614731565b50600160a060020a03969096166000908152603960209081526040918290208251808401909352805480845260019091015492820183905288519890910151979890965090945092505050565b600160a060020a0383166000908152603760205260408120548490610100900460ff1680612c225750603454600160a060020a038281169116145b1515612c66576040805160e560020a62461bcd028152602060048201526013602482015260008051602061483e833981519152604482015290519081900360640190fd5b8433612c728282612fbb565b1515612cb6576040805160e560020a62461bcd02815260206004820152601b602482015260008051602061481e833981519152604482015290519081900360640190fd5b6000861180612cc55750600085115b1515612d1b576040805160e560020a62461bcd02815260206004820152601c60248201527f4d75737420696e636c75646520616e2061637475616c207374616b6500000000604482015290519081900360640190fd5b612d268787876133b5565b600160a060020a0387166000908152603d6020908152604080832033845290915290208054612d5b908863ffffffff61302116565b81556001810154612d72908763ffffffff61302116565b6001820155604080518881526020810188905281513392600160a060020a038c16927f92eac844fca3589ac95a8cb7a1e314d2393dbae02a021c024586ce431739c8eb929081900390910190a3506001979650505050505050565b600160a060020a038116600090815260376020526040902054819060ff161515612e2f576040805160e560020a62461bcd02815260206004820152600f6024820152600080516020614b01833981519152604482015290519081900360640190fd5b612e37614731565b50600160a060020a03821660009081526039602090815260408083208151808301909252805480835260019091015492820192909252911080612e7e575060008160200151115b1515612ebe5760405160e560020a62461bcd028152600401808060200182810382526021815260200180614a5a6021913960400191505060405180910390fd5b612ec6614731565b50600160a060020a03831660009081526038602090815260408083208151808301909252805480835260019091015492820192909252911080612f0d575060008160200151115b1515612f63576040805160e560020a62461bcd02815260206004820152601a60248201527f506f6f6c206d757374206861766520736f6d65207374616b6573000000000000604482015290519081900360640190fd5b6117e584613119565b612f788383833361368a565b505050565b612f856126b3565b1515612f9057600080fd5b6126a0816143da565b60345474010000000000000000000000000000000000000000900461ffff1681565b600160a060020a038083166000908152603d602090815260408083209385168352929052908120548110806130185750600160a060020a038084166000908152603d60209081526040808320938616835292905290812060010154115b90505b92915050565b6000828201838110156130185760405160e560020a62461bcd02815260040180806020018281038252602281526020018061485e6022913960400191505060405180910390fd5b81518151600091829182911161308157606491506130b4565b8351600010156130b457845184516130b191906130a590606463ffffffff61445816565b9063ffffffff6144b816565b91505b60208086015190850151106130cb575060646130fb565b6000846020015111156130fb576130f885602001516130a56064876020015161445890919063ffffffff16565b90505b61311060026130a5848463ffffffff61302116565b95945050505050565b600160a060020a038116600090815260376020526040902054819060ff16151561317b576040805160e560020a62461bcd02815260206004820152600f6024820152600080516020614b01833981519152604482015290519081900360640190fd5b613183614731565b50600160a060020a038216600081815260396020818152604080842081518083018352815481526001820180548286015283518085019094528684528385018781529790965293909252519055915190556131dc614731565b50600160a060020a0383166000818152603860209081526040808320815180830183528154815260019091015481840152938352603b90915281205461ffff16905b8161ffff168161ffff16101561337957600160a060020a038087166000908152603c6020908152604080832061ffff8616845290915290205416613260614731565b50600160a060020a038088166000908152603d602090815260408083209385168352928152828220835180850190945280548085526001909101549184019190915211806132b2575060008160200151115b1561336f576000806132c5888885613e53565b600160a060020a03808d166000908152603e60209081526040808320938a168352929052908120805493955091935090911561331257815461330d908563ffffffff61302116565b613323565b61332384600163ffffffff61302116565b80835560018301549091506000901561335057600183015461334b908563ffffffff61302116565b613361565b61336184600163ffffffff61302116565b600190930192909255505050505b505060010161321e565b50604051600160a060020a038616907f5218943b62de32c43c7c9f6bbc0a7679e1f6738cc59e5e7f8db3736a9aed75fc90600090a25050505050565b600160a060020a03831615156134215734821461341c576040805160e560020a62461bcd02815260206004820152601a60248201527f5374616b6572206d7573742073656e6420455448207374616b65000000000000604482015290519081900360640190fd5b613500565b604080517f23b872dd0000000000000000000000000000000000000000000000000000000081523360048201523060248201526044810184905290518491600160a060020a038316916323b872dd916064808201926020929091908290030181600087803b15801561349257600080fd5b505af11580156134a6573d6000803e3d6000fd5b505050506040513d60208110156134bc57600080fd5b505115156134fe5760405160e560020a62461bcd0281526004018080602001828103825260398152602001806149116039913960400191505060405180910390fd5b505b603454604080517f23b872dd000000000000000000000000000000000000000000000000000000008152336004820152306024820152604481018490529051600160a060020a03909216916323b872dd916064808201926020929091908290030181600087803b15801561357357600080fd5b505af1158015613587573d6000803e3d6000fd5b505050506040513d602081101561359d57600080fd5b505115156135df5760405160e560020a62461bcd0281526004018080602001828103825260368152602001806149ff6036913960400191505060405180910390fd5b6135e7614731565b50600160a060020a03831660009081526038602090815260409182902082518084018452815481526001909101549181019190915281518083019092528051909190819061363b908663ffffffff61302116565b815260200161365784846020015161302190919063ffffffff16565b9052600160a060020a03909416600090815260386020908152604090912085518155940151600190940193909355505050565b600160a060020a0384166000908152603760205260409020548490610100900460ff16806136c55750603454600160a060020a038281169116145b1515613709576040805160e560020a62461bcd028152602060048201526013602482015260008051602061483e833981519152604482015290519081900360640190fd5b600160a060020a0384166000908152603760205260409020548490610100900460ff16806137445750603454600160a060020a038281169116145b1515613788576040805160e560020a62461bcd028152602060048201526013602482015260008051602061483e833981519152604482015290519081900360640190fd5b600084116137ca5760405160e560020a62461bcd028152600401808060200182810382526036815260200180614b4b6036913960400191505060405180910390fd5b600160a060020a038616151561383657348414613831576040805160e560020a62461bcd02815260206004820152601f60248201527f53656e646572206d7573742073656e6420455448206173207061796d656e7400604482015290519081900360640190fd5b613915565b604080517f23b872dd0000000000000000000000000000000000000000000000000000000081523360048201523060248201526044810186905290518791600160a060020a038316916323b872dd916064808201926020929091908290030181600087803b1580156138a757600080fd5b505af11580156138bb573d6000803e3d6000fd5b505050506040513d60208110156138d157600080fd5b505115156139135760405160e560020a62461bcd02815260040180806020018281038252602a815260200180614b21602a913960400191505060405180910390fd5b505b603454600090600160a060020a03888116911614806139415750603454600160a060020a038781169116145b1561395857613951878787614527565b9050613991565b603454600090613973908990600160a060020a031688614527565b60345490915061398d90600160a060020a03168883614527565b9150505b600081116139e9576040805160e560020a62461bcd02815260206004820152601860248201527f4d75737420626520736f6d652073776170206f75747075740000000000000000604482015290519081900360640190fd5b600160a060020a0386161515613a78573031811115613a3c5760405160e560020a62461bcd02815260040180806020018281038252602e8152602001806148e3602e913960400191505060405180910390fd5b604051600160a060020a0385169082156108fc029083906000818181858888f19350505050158015613a72573d6000803e3d6000fd5b50613b52565b604080517fa9059cbb000000000000000000000000000000000000000000000000000000008152600160a060020a038681166004830152602482018490529151889283169163a9059cbb9160448083019260209291908290030181600087803b158015613ae457600080fd5b505af1158015613af8573d6000803e3d6000fd5b505050506040513d6020811015613b0e57600080fd5b50511515613b505760405160e560020a62461bcd0281526004018080602001828103825260298152602001806149ae6029913960400191505060405180910390fd5b505b60408051338152600160a060020a038681166020830152818301889052606082018490529151828916928a16917f398e880bdad53f0dc54c3177dfd1f8b52fa222c9c4cb017f4c3aacf4b8cab842919081900360800190a350505050505050565b600082821115613bf75760405160e560020a62461bcd028152600401808060200182810382526025815260200180614a356025913960400191505060405180910390fd5b50900390565b6000821115613d6f57600160a060020a0384161515613c95573031821115613c595760405160e560020a62461bcd0281526004018080602001828103825260358152602001806149796035913960400191505060405180910390fd5b604051600160a060020a0384169083156108fc029084906000818181858888f19350505050158015613c8f573d6000803e3d6000fd5b50613d6f565b604080517fa9059cbb000000000000000000000000000000000000000000000000000000008152600160a060020a038581166004830152602482018590529151869283169163a9059cbb9160448083019260209291908290030181600087803b158015613d0157600080fd5b505af1158015613d15573d6000803e3d6000fd5b505050506040513d6020811015613d2b57600080fd5b50511515613d6d5760405160e560020a62461bcd028152600401808060200182810382526035815260200180614aa96035913960400191505060405180910390fd5b505b60008111156117e557603454604080517fa9059cbb000000000000000000000000000000000000000000000000000000008152600160a060020a038681166004830152602482018590529151919092169163a9059cbb9160448083019260209291908290030181600087803b158015613de757600080fd5b505af1158015613dfb573d6000803e3d6000fd5b505050506040513d6020811015613e1157600080fd5b505115156117e55760405160e560020a62461bcd02815260040180806020018281038252602f81526020018061494a602f913960400191505060405180910390fd5b6000806000613e628585613068565b9050801515613e78575060009150819050613edb565b85511515613e895760009250613ea6565b8551613ea3906064906130a590849063ffffffff61445816565b92505b60208601511515613eba5760009150613ed9565b613ed660646130a588602001518461445890919063ffffffff16565b91505b505b935093915050565b60345460009081908190600160a060020a038781169116148181613f075787613f09565b865b90506000613f1782846146d5565b90506000613f268385156146d5565b905073__CanSwapMath___________________________6331e63edc8984846040518463ffffffff167c010000000000000000000000000000000000000000000000000000000002815260040180848152602001838152602001828152602001935050505060606040518083038186803b158015613fa357600080fd5b505af4158015613fb7573d6000803e3d6000fd5b505050506040513d6060811015613fcd57600080fd5b5080516020820151604090920151909c919b509950975050505050505050565b600160a060020a038216600090815260376020526040902054829060ff16151561404f576040805160e560020a62461bcd02815260206004820152600f6024820152600080516020614b01833981519152604482015290519081900360640190fd5b828261405b8282612fbb565b151561409f576040805160e560020a62461bcd02815260206004820152601b602482015260008051602061481e833981519152604482015290519081900360640190fd5b6140a7614731565b50600160a060020a038086166000908152603e6020908152604080832093881683529281529082902082518084019093528054808452600191820154928401929092521115806140fc57506001816020015110155b1561417557805161411490600163ffffffff613bb316565b8152602081015161412c90600163ffffffff613bb316565b6020808301919091526040805180820182526001808252818401818152600160a060020a03808c166000908152603e8752858120918c1681529552929093209051815590519101555b61417d614731565b50600160a060020a038087166000908152603d602090815260408083209389168084528483528184208251808401845281548152600182018054828701528451808601909552868552848601878152939096529590935290519091555190556141e4614731565b50600160a060020a038716600090815260386020908152604091829020825180840184528154815260019091015491810191909152815180830190925282518151919291829161423a919063ffffffff613bb316565b815260200161425a84602001518460200151613bb390919063ffffffff16565b9052600160a060020a0389166000908152603860209081526040822083518155920151600190920191909155825184516142999163ffffffff61302116565b905060006142b88460200151866020015161302190919063ffffffff16565b90506142c68a8a8484613bfd565b88600160a060020a03168a600160a060020a03167fbb09f547fc4b399016a30964f5a1420e604a2534476032ea89f5414191dbc3d460405160405180910390a350505050505050505050565b303b1590565b600054610100900460ff16806143315750614331614312565b8061433f575060005460ff16155b151561437f5760405160e560020a62461bcd02815260040180806020018281038252602e815260200180614a7b602e913960400191505060405180910390fd5b600080546033805473ffffffffffffffffffffffffffffffffffffffff1916600160a060020a03949094169390931790925561ff001980831661010090811760ff19166001179091169281900460ff16151502919091179055565b600160a060020a03811615156143ef57600080fd5b603354604051600160a060020a038084169216907f8be0079c531659141344cd1fd0a4f28419497f9722a3daafe3b4186f6b6457e090600090a36033805473ffffffffffffffffffffffffffffffffffffffff1916600160a060020a0392909216919091179055565b60008215156144695750600061301b565b82820282848281151561447857fe5b04146130185760405160e560020a62461bcd02815260040180806020018281038252602281526020018061485e6022913960400191505060405180910390fd5b6000808211614511576040805160e560020a62461bcd02815260206004820152601860248201527f44697669736f72206d757374206265206e6f6e207a65726f0000000000000000604482015290519081900360640190fd5b6000828481151561451e57fe5b04949350505050565b603454600090600160a060020a0385811691161481816145475785614549565b845b9050600080600061455b898989613ee3565b925092509250841561461757600160a060020a038416600090815260386020526040902060010154614593908863ffffffff61302116565b600160a060020a03851660009081526038602052604090206001810191909155546145c4908463ffffffff613bb316565b600160a060020a0385166000908152603860209081526040808320939093556039905220546145f9908263ffffffff61302116565b600160a060020a0385166000908152603960205260409020556146c9565b600160a060020a038416600090815260386020526040902054614640908863ffffffff61302116565b600160a060020a03851660009081526038602052604090209081556001015461466f908463ffffffff613bb316565b600160a060020a03851660009081526038602090815260408083206001908101949094556039909152902001546146ac908263ffffffff61302116565b600160a060020a0385166000908152603960205260409020600101555b50979650505050505050565b6000816146fa57600160a060020a038316600090815260386020526040902054613018565b5050600160a060020a031660009081526038602052604090206001015490565b604080518082019091526060808252602082015290565b604080518082019091526000808252602082015290565b828054600181600116156101000203166002900490600052602060002090601f016020900481019282601f1061478957805160ff19168380011785556147b6565b828001600101855582156147b6579182015b828111156147b657825182559160200191906001019061479b565b506147c29291506147c6565b5090565b6126b091905b808211156147c257600081556001016147cc56fe50726f737065637469766520706f6f6c207368617265206d7573742062652067726561746572207468616e206d696e696d756d207468726573686f6c6455736572206d757374206265207374616b657220696e20706f6f6c0000000000506f6f6c206d7573742062652061637469766500000000000000000000000000526573756c74206f66206164646974696f6e2063616e6e6f74206f766572666c6f775377617020696e707574206d757374206265206e6f6e207a65726f2076616c75654d75737420696e636c75646520616e20696e697469616c2043414e207374616b654d75737420696e636c75646520616e20696e697469616c20544b4e207374616b65436f6e7472616374206d757374206861766520656e6f7567682045544820746f2070617920726563697069656e744d7573742062652061626c6520746f207472616e7366657220746f6b656e732066726f6d20706f6f6c2063726561746f7220746f20706f6f6c506f6f6c2068617320696e73756666696369656e742043414e20746f207472616e7366657220746f207374616b6572506f6f6c2068617320696e73756666696369656e74204554482062616c616e636520746f207472616e7366657220746f2075736572436f6e7472616374206d7573742072656c6561736520746f6b656e7320746f20726563697069656e74506f6f6c206d75737420636f6e7461696e207265776172647320666f7220746865207374616b65724d7573742062652061626c6520746f207472616e736665722043414e2066726f6d20706f6f6c2063726561746f7220746f20706f6f6c526573756c74206f66207375627472616374696f6e2063616e6e6f74206f766572666c6f77506f6f6c206d757374206861766520736f6d65207265636f726465642066656573436f6e747261637420696e7374616e63652068617320616c7265616479206265656e20696e697469616c697a6564506f6f6c2068617320696e73756666696369656e7420544b4e2062616c616e636520746f207472616e7366657220746f2075736572526563697069656e74206d757374206265206e6f6e20656d7074792061646472657373506f6f6c206d757374206578697374000000000000000000000000000000000053656e646572206d757374206861766520617070726f7665642074686520544b4e207472616e736665724d75737420626520617474656d7074696e6720746f20737761702061206e6f6e207a65726f20616d6f756e74206f6620746f6b656e73a165627a7a72305820c2c764cac0936ce75d7189b885a3f74f7e8c6d3a2bc2141687dca27b2deb00e80029",
  "source": "pragma solidity ^0.5.1;\n\nimport { Ownable } from \"./Ownable.sol\";\nimport \"./IERC20.sol\";\nimport { SafeMath, CanSwapMath } from \"./CanSwapMath.sol\";\n\n/**\n * @title CanSwap liqudity pools\n * @dev Continuous liquidity pools to allow on-chain conversions of\n * tokens and ether into and out of CAN. The continuous liquidity pools are permissionless; anyone\n * can add or remove liquidity and anyone can use the pools to convert between assets\n * Satisfies requirements outlined in WhitePaper, with a number of technical compromises\n * - https://github.com/canyaio/canswap-contracts/blob/master/resources/Whitepaper.pdf\n */\ncontract CanSwap is Ownable {\n\n    using SafeMath for uint256;\n\n    /** @dev Pool meta data */\n    struct PoolDetails {\n        string uri;\n        string api;\n    }\n    /** @dev Pool status */\n    struct PoolStatus {\n        bool exists;\n        bool active;\n    }\n    /** @dev Current pool balance */\n    struct PoolBalance {\n        uint256 balTKN;\n        uint256 balCAN;\n    }\n    /** @dev Current accrued, unallocated pool fees */\n    struct PoolFees {\n        uint256 feeTKN;\n        uint256 feeCAN;\n    }\n    /** @dev A stakers stake in a pool */\n    struct PoolStake {\n        uint256 stakeTKN;\n        uint256 stakeCAN;\n    }    \n    /** @dev A stakers allocated fees in a pool \n      * Rewards default to and are reset to 1 after withdrawal\n      * This lets us keep the gas costs for `allocateFees` lower and consistent\n      */\n    struct PoolStakeRewards {\n        uint256 rewardTKN;\n        uint256 rewardCAN;\n    }\n\n    /** @dev Events to emit */\n    event eventPoolCreated(address indexed pool, string uri, string api); \n    event eventPoolDetailsUpdated(address indexed pool, string uri, string api);\n    event eventPoolMinimumStakeUpdated(address indexed pool, uint8 threshold);\n    event eventPoolActivationChanged(address indexed pool, bool activated);\n    event eventStakerAddedToPool(address indexed pool, address indexed staker);  \n    event eventStakeAdded(address indexed pool, address indexed staker, uint256 amountTkn, uint256 amountCan);\n    event eventPoolFeesDistributed(address indexed pool);\n    event eventStakerWithdrawnFromPool(address indexed pool, address indexed staker);\n    event eventStakerWithdrawnFeesFromPool(address indexed pool, address indexed staker);\n    event eventSwapExecuted(address indexed fromToken, address indexed toToken, address swapper, address recipient, uint256 fromValue, uint256 toValue);\n\n    /** @dev Base currency to be used across all pools */\n    IERC20 public CAN;\n\n    /** @dev Track all existing pools for use client side */\n    uint16 public poolCount;\n    mapping(uint16 => address) mapIndexToPool;\n\n    /** @dev Track the pool details, fees and status */\n    mapping(address => PoolDetails) mapPoolDetails;\n    mapping(address => PoolStatus) mapPoolStatus;\n    mapping(address => PoolBalance) mapPoolBalances;\n    mapping(address => PoolFees) mapPoolFees; \n    mapping(address => uint8) mapPoolMinimumStake; \n\n    /** @dev Track staking activity accross the pools */\n    mapping(address => uint16) mapPoolStakerCount;\n    mapping(address => mapping(uint16 => address)) mapPoolStakerAddress;\n    mapping(address => mapping(address => PoolStake)) mapPoolStakes;\n    mapping(address => mapping(address => PoolStakeRewards)) mapPoolStakeRewards;\n\n    /** @dev Track individual stakers activity */\n    mapping(address => uint16) mapStakerPoolCount;\n    mapping(address => mapping(uint16 => address)) mapStakerPools;\n    mapping(address => mapping(address => bool)) mapStakerHasStakedInPool;\n\n    /** \n     * @dev Constructor\n     * @param _canToken Address of the base token to be used across all pools\n     */\n    function initialize(address _canToken) public initializer {\n        Ownable.initialize(msg.sender);\n\n        CAN = IERC20(_canToken);\n        poolCount = 0;\n    }\n\n    /** \n      * @dev Modifier - requires pool to exist\n      * @param _token Token address used in the pool\n      */\n    modifier poolExists(address _token) {\n        require(mapPoolStatus[_token].exists, \"Pool must exist\");\n        _;\n    }\n\n    /** \n      * @dev Modifier - requires pool to be active or base currency\n      * @param _token Token address used in the pool\n      */\n    modifier poolIsActiveOrBase(address _token) {\n        require(mapPoolStatus[_token].active || _token == address(CAN), \"Pool must be active\");\n        _;\n    }\n\n    /** \n      * @dev Modifier - requires user to be a staker in the pool\n      * @param _pool Token address of the pool\n      * @param _staker Address of potential staker\n      */\n    modifier onlyActiveStaker(address _pool, address _staker) {\n        require(_hasStakeInPool(_pool, _staker), \"User must be staker in pool\");\n        _;\n    }\n\n    /** \n      * @dev Bool is staker in pool with active stakes, internal\n      * @param _pool Token address of the pool\n      * @param _staker Address of potential staker\n      * @return bool IsStaker\n      */\n    function _hasStakeInPool(address _pool, address _staker)\n    internal \n    view\n    returns (bool) {\n        return mapPoolStakes[_pool][_staker].stakeTKN > 0 || mapPoolStakes[_pool][_staker].stakeCAN > 0;\n    }\n\n    /** \n      * @dev Modifier - requires user to be creator of a pool\n      * @param _pool Token address of the pool\n      */\n    modifier onlyCreatorOrOwner(address _pool) {\n        require(mapPoolStakerAddress[_pool][0] == msg.sender || isOwner(), \"User must be creator of the pool\");\n        _;\n    }\n\n    /**\n     * @dev Create a liquidity pool paired with CAN and perform initial stake. Requires transfer approval\n     * @param _token Token from which to create pool\n     * @param _uri URI to associate with the token pool\n     * @param _api API to associate with the token pool\n     * @param _amountTkn Initial token stake\n     * @param _amountCan Initial CanYaCoin stake\n     */\n    function createPoolForToken(address _token, string calldata _uri, string calldata _api, uint256 _amountTkn, uint256 _amountCan) \n    external \n    payable {\n        require(mapPoolStatus[_token].exists == false, \"Pool must not exist\");\n        require(_amountTkn > 0, \"Must include an initial TKN stake\");\n        require(_amountCan > 0, \"Must include an initial CAN stake\");\n        \n        mapIndexToPool[poolCount] = _token;\n        mapPoolDetails[_token] = PoolDetails(_uri, _api);\n        mapPoolStatus[_token] = PoolStatus(true, true);\n        mapPoolMinimumStake[_token] = 10;\n        poolCount += 1;\n\n        emit eventPoolCreated(_token, _uri, _api);\n\n        require(stakeInPool(_token, _amountTkn, _amountCan), \"Stake must be successful\");\n    }\n\n    /**\n     * @dev Update meta properties for a pool\n     * @param _uri Updated URI to associate with the token pool\n     * @param _api Updated API to associate with the token pool\n     */\n    function updatePoolDetails(address _pool, string calldata _uri, string calldata _api) \n    external\n    poolExists(_pool)\n    onlyCreatorOrOwner(_pool) {\n        mapPoolDetails[_pool] = PoolDetails(_uri, _api);\n        emit eventPoolDetailsUpdated(_pool, _uri, _api);\n    }\n\n    /**\n     * @dev Set minimum staking threshold\n     * @param _threshold Percent of prospective pool that must be staked in order to gain access\n     */\n    function updateMinimumStakeThreshold(address _pool, uint8 _threshold) \n    external\n    poolExists(_pool)\n    onlyCreatorOrOwner(_pool) {\n        require(_threshold >= 0 && _threshold < 100, \"Threshold must be >= 0 && < 100\");\n        mapPoolMinimumStake[_pool] = _threshold;\n        emit eventPoolMinimumStakeUpdated(_pool, _threshold);\n    }\n\n    /**\n     * @dev Activate the pool. Executed by contract owner\n     * @param _pool Address of token for pool\n     */\n    function activatePool(address _pool) \n    external\n    onlyOwner() {\n        PoolStatus storage pool = mapPoolStatus[_pool];\n        require(pool.exists && pool.active == false, \"Pool must be inactive\");\n        pool.active = true;\n        emit eventPoolActivationChanged(_pool, true);\n    }\n\n    /**\n     * @dev De-activate the pool. Executed by contract owner\n     * @param _pool Address of token for pool\n     */\n    function deactivatePool(address _pool) \n    external\n    onlyOwner() {\n        PoolStatus storage pool = mapPoolStatus[_pool];\n        require(pool.exists && pool.active, \"Pool must be active\");\n        pool.active = false;\n        emit eventPoolActivationChanged(_pool, false);\n    }\n\n\n    /**\n     * @dev Perform stake in pool. Requires transfer approval. New or returning stakers must run allocate fees\n     * @param _pool Address of token for pool\n     * @param _amountTkn Amount of tokens to stake\n     * @param _amountCan Address of CanYaCoins to stake\n     */\n    function stakeInPool(address _pool, uint256 _amountTkn, uint256 _amountCan) \n    public\n    payable\n    poolIsActiveOrBase(_pool) \n    returns (bool success) {\n        require(_amountTkn > 0 || _amountCan > 0, \"Must include an actual stake\");\n        require(_hasStakeInPool(_pool, msg.sender) == false, \"User cannot already be a staker\");\n        \n        PoolStake memory stake = PoolStake(_amountTkn, _amountCan);\n        PoolBalance memory existingBalance = mapPoolBalances[_pool];\n\n        if(existingBalance.balTKN > 0 || existingBalance.balCAN > 0){\n            PoolBalance memory prospectiveBalance = PoolBalance(existingBalance.balTKN.add(_amountTkn), existingBalance.balCAN.add(_amountCan));\n            uint256 prospectivePoolShare = _calculatePoolShare(prospectiveBalance, stake);\n            require(prospectivePoolShare >= mapPoolMinimumStake[_pool], \"Prospective pool share must be greater than minimum threshold\");\n        }\n\n        _allocateFees(_pool);\n        \n        _depositStakeAndUpdateBalance(_pool, _amountTkn, _amountCan);\n\n        if(mapStakerHasStakedInPool[msg.sender][_pool] == false){\n            mapPoolStakerAddress[_pool][mapPoolStakerCount[_pool]] = msg.sender;\n            mapPoolStakerCount[_pool] += 1;\n\n            mapStakerHasStakedInPool[msg.sender][_pool] = true;\n            \n            mapStakerPools[msg.sender][mapStakerPoolCount[msg.sender]] = _pool;\n            mapStakerPoolCount[msg.sender] += 1;\n\n            emit eventStakerAddedToPool(_pool, msg.sender);\n        }\n\n        mapPoolStakes[_pool][msg.sender] = stake;\n\n        emit eventStakeAdded(_pool, msg.sender, _amountTkn, _amountCan);\n        return true;\n    }\n\n    /**\n     * @dev Add an additional stake to a pool you stake in. Requires transfer approval\n     * @param _pool Address of token for pool\n     * @param _amountTkn Amount of tokens to add to stake\n     * @param _amountCan Address of CanYaCoins to add to stake\n     * @return bool success - Success of function execution\n     */\n    function addStakeInPool(address _pool, uint256 _amountTkn, uint256 _amountCan) \n    public\n    payable\n    poolIsActiveOrBase(_pool)\n    onlyActiveStaker(_pool, msg.sender) \n    returns (bool success) {\n        require(_amountTkn > 0 || _amountCan > 0, \"Must include an actual stake\");\n\n        _depositStakeAndUpdateBalance(_pool, _amountTkn, _amountCan);\n\n        PoolStake storage stake = mapPoolStakes[_pool][msg.sender];\n        stake.stakeTKN = stake.stakeTKN.add(_amountTkn);\n        stake.stakeCAN = stake.stakeCAN.add(_amountCan);\n\n        emit eventStakeAdded(_pool, msg.sender, _amountTkn, _amountCan);\n        return true;\n    }\n\n    /**\n     * @dev Execute value transfers and internally assign the stake deposits\n     * @param _pool Address of token for pool\n     * @param _amountTkn Amount of tokens to deposit into pool\n     * @param _amountCan Address of CanYaCoins to deposit into pool\n     */\n    function _depositStakeAndUpdateBalance(address _pool, uint256 _amountTkn, uint256 _amountCan) \n    internal {\n        if(_pool == address(0)){\n            require(msg.value == _amountTkn, \"Staker must send ETH stake\");\n        } else {\n            IERC20 token = IERC20(_pool);                                          \n            require(token.transferFrom(msg.sender, address(this), _amountTkn), \"Must be able to transfer tokens from pool creator to pool\");    \n        }\n        require(CAN.transferFrom(msg.sender, address(this), _amountCan), \"Must be able to transfer CAN from pool creator to pool\");             \n        \n        PoolBalance memory currentBalance = mapPoolBalances[_pool];\n        mapPoolBalances[_pool] = PoolBalance(currentBalance.balTKN.add(_amountTkn), currentBalance.balCAN.add(_amountCan));\n    }\n\n    /**\n     * @dev Calculate the reward msg.sender can expect from re allocating the fees\n     * @param _pool Token address of the pool\n     * @return uint256 rewardTKN - How much of the accumulated TKN fees the staker will get\n     * @return uint256 rewardCAN - How much of the accumulated CAN fees the staker will get \n     */\n    function getAllocationReward(address _pool)\n    external\n    view\n    poolExists(_pool) \n    onlyActiveStaker(_pool, msg.sender)\n    returns (uint256 rewardTKN, uint256 rewardCAN) {\n        PoolFees memory poolFees = mapPoolFees[_pool];\n        require(poolFees.feeTKN > 0 || poolFees.feeCAN > 0, \"Pool must have some recorded fees\");\n\n        PoolBalance memory poolBalance = mapPoolBalances[_pool];   \n        PoolStake memory stake = mapPoolStakes[_pool][msg.sender];\n        \n        return _calculateFeeShare(poolFees, poolBalance, stake);\n    }\n\n    /**\n     * @dev Allocates fees accumulated in a pool to the stakers based on their pool share\n     * @param _pool Token address of the pool\n     */\n    function allocateFees(address _pool)\n    external\n    poolExists(_pool) {\n        PoolFees memory poolFees = mapPoolFees[_pool];\n        require(poolFees.feeTKN > 0 || poolFees.feeCAN > 0, \"Pool must have some recorded fees\");\n        PoolBalance memory poolBalance = mapPoolBalances[_pool];\n        require(poolBalance.balTKN > 0 || poolBalance.balCAN > 0, \"Pool must have some stakes\");\n        _allocateFees(_pool);\n    }\n\n    /**\n     * @dev Allocates fees accumulated in a pool to the stakers based on their pool share\n     * @param _pool Token address of the pool\n     */\n    function _allocateFees(address _pool) \n    internal\n    poolExists(_pool) {\n\n        /** TODO\n            If we need to optimise this (allocate per token), we should: \n            - switch to individual mappings to avoid SLOAD costs\n            - pack the structs via bitwise ops (+ optimise to uint128)\n         */ \n\n        PoolFees memory initialPoolFees = mapPoolFees[_pool];\n        mapPoolFees[_pool] = PoolFees(0, 0);\n\n        PoolBalance memory poolBalance = mapPoolBalances[_pool];\n\n        uint16 stakerCount = mapPoolStakerCount[_pool];\n        for (uint16 i = 0; i < stakerCount; i++) {\n            address staker = mapPoolStakerAddress[_pool][i];\n            PoolStake memory stake = mapPoolStakes[_pool][staker];\n            if(stake.stakeTKN > 0 || stake.stakeCAN > 0){\n                (uint256 feeShareTKN, uint256 feeShareCAN) = _calculateFeeShare(initialPoolFees, poolBalance, stake);\n                PoolStakeRewards storage stakerRewards = mapPoolStakeRewards[_pool][staker];\n                uint256 rewardTKN = stakerRewards.rewardTKN == 0 ? feeShareTKN.add(1) : stakerRewards.rewardTKN.add(feeShareTKN);\n                stakerRewards.rewardTKN = rewardTKN;\n                uint256 rewardCAN = stakerRewards.rewardCAN == 0 ? feeShareCAN.add(1) : stakerRewards.rewardCAN.add(feeShareCAN);\n                stakerRewards.rewardCAN = rewardCAN;\n            }\n        }\n\n        emit eventPoolFeesDistributed(_pool);\n    }\n\n    /**\n     * @dev Internally calculate the share of fees for a particular staker\n     * @param _poolFees Total fees in the pool\n     * @param _poolBalance Total balance of the pool\n     * @param _stake Stakers portion of the pool balance\n     * @return uint256 feeShareTKN - How much of the accumulated TKN fees the staker will get\n     * @return uint256 feeShareCAN - How much of the accumulated CAN fees the staker will get\n     */\n    function _calculateFeeShare(PoolFees memory _poolFees, PoolBalance memory _poolBalance, PoolStake memory _stake)\n    private\n    pure\n    returns (uint256 feeShareTKN, uint256 feeShareCAN) {\n        uint256 poolShareAVG = _calculatePoolShare(_poolBalance, _stake);\n        if(poolShareAVG == 0){\n            return (0, 0);\n        }\n\n        if(_poolFees.feeTKN == 0){\n            feeShareTKN = 0;\n        } else {\n            feeShareTKN = poolShareAVG.mul(_poolFees.feeTKN).div(100);\n        }\n\n        if(_poolFees.feeCAN == 0){\n            feeShareCAN = 0;\n        } else {\n            feeShareCAN = poolShareAVG.mul(_poolFees.feeCAN).div(100);\n        }\n        return (feeShareTKN, feeShareCAN);\n    }\n\n    /**\n     * @dev Internally calculate the pool share from stake\n     * @param _poolBalance Total balance of the pool\n     * @param _stake Stakers portion of the pool balance\n     * @return uint256 - Pool share based on stake\n     */\n    function _calculatePoolShare(PoolBalance memory _poolBalance, PoolStake memory _stake)\n    private\n    pure\n    returns (uint256) {\n        (uint256 poolShareTKN, uint256 poolShareCAN) = (0, 0);\n\n        if(_stake.stakeTKN >= _poolBalance.balTKN){\n            poolShareTKN = 100;\n        } else if(_stake.stakeTKN > 0){\n            poolShareTKN = _stake.stakeTKN.mul(100).div(_poolBalance.balTKN);\n        }\n\n        if(_stake.stakeCAN >= _poolBalance.balCAN){\n            poolShareCAN = 100;\n        } else if(_stake.stakeCAN > 0){\n            poolShareCAN = _stake.stakeCAN.mul(100).div(_poolBalance.balCAN);\n        }\n        return (poolShareTKN.add(poolShareCAN)).div(2);\n    }\n\n    /**\n     * @dev Withdraw my stake and fees from the pool\n     * @param _pool Token address of the pool\n     */\n    function withdrawFromPool(address _pool)\n    external {\n        _withdrawFromPool(_pool, msg.sender);\n    }\n\n    /**\n     * @dev Withdraws a staker completely from the pool, transferring funds and resetting balances\n     * @param _pool Token address of the pool\n     * @param _staker Address of the staker to withd raw from pool\n     */\n    function _withdrawFromPool(address _pool, address payable _staker) \n    internal\n    poolExists(_pool)\n    onlyActiveStaker(_pool, _staker) {\n        PoolStakeRewards memory stakerRewards = mapPoolStakeRewards[_pool][_staker];\n        if(stakerRewards.rewardTKN >= 1 || stakerRewards.rewardCAN >= 1) {\n            stakerRewards.rewardTKN = stakerRewards.rewardTKN.sub(1);\n            stakerRewards.rewardCAN = stakerRewards.rewardCAN.sub(1);\n            mapPoolStakeRewards[_pool][_staker] = PoolStakeRewards(1, 1);\n        }\n\n        PoolStake memory stakerBalance = mapPoolStakes[_pool][_staker];\n        mapPoolStakes[_pool][_staker] = PoolStake(0, 0);\n\n        PoolBalance memory currentPoolBalance = mapPoolBalances[_pool];\n        mapPoolBalances[_pool] = PoolBalance(currentPoolBalance.balTKN.sub(stakerBalance.stakeTKN), currentPoolBalance.balCAN.sub(stakerBalance.stakeCAN));\n\n        uint256 totalTKN = stakerRewards.rewardTKN.add(stakerBalance.stakeTKN);\n        uint256 totalCAN = stakerRewards.rewardCAN.add(stakerBalance.stakeCAN);\n\n        _executeWithdrawal(_pool, _staker, totalTKN, totalCAN);\n\n        emit eventStakerWithdrawnFromPool(_pool, _staker);\n    }\n\n    /**\n     * @dev Withdraws an active stakers accumulated fees for a particular pool\n     * @param _pool Token address of the pool\n     */\n    function withdrawFees(address _pool) \n    external\n    poolExists(_pool)\n    onlyActiveStaker(_pool, msg.sender) {\n        PoolStakeRewards memory stakerRewards = mapPoolStakeRewards[_pool][msg.sender];\n        require(stakerRewards.rewardTKN > 1 || stakerRewards.rewardCAN > 1, \"Pool must contain rewards for the staker\");\n        mapPoolStakeRewards[_pool][msg.sender] = PoolStakeRewards(1, 1);\n        \n        _executeWithdrawal(_pool, msg.sender, stakerRewards.rewardTKN.sub(1), stakerRewards.rewardCAN.sub(1));\n\n        emit eventStakerWithdrawnFeesFromPool(_pool, msg.sender);\n    }\n\n    /**\n     * @dev Internal execution of releasing funds to the staker\n     * @param _pool Token address of the pool\n     * @param _recipient Address to which to send the funds\n     * @param _amountTKN Token amount to be sent\n     * @param _amountCAN CAN amount to be sent\n     */\n    function _executeWithdrawal(address _pool, address payable _recipient, uint256 _amountTKN, uint256 _amountCAN)\n    private {\n        if(_amountTKN > 0){\n            if(_pool == address(0)){\n                require(address(this).balance >= _amountTKN, \"Pool has insufficient ETH balance to transfer to user\");\n                (_recipient).transfer(_amountTKN);\n            } else {\n                IERC20 token = IERC20(_pool);                                          \n                require(token.transfer(_recipient, _amountTKN), \"Pool has insufficient TKN balance to transfer to user\");    \n            }\n        }\n\n        if(_amountCAN > 0){\n            require(CAN.transfer(_recipient, _amountCAN), \"Pool has insufficient CAN to transfer to staker\");\n        }\n    }\n\n    /**\n     * @dev Perform swap and return funds to sender\n     * @param _from Token to swap from\n     * @param _to Token the user will receive as output\n     * @param _value Amount of _from token used as deposit\n     */\n    function swap(address _from, address _to, uint256 _value) \n    public \n    payable {\n        _swapAndSend(_from, _to, _value, msg.sender);\n    }\n\n    /**\n     * @dev Calculate token emission from Swap function\n     * @param _from Token to swap from\n     * @param _to Token the user will receive as output\n     * @param _value Amount of _from token used as deposit\n     * @return uint256 tokensEmitted - Value of tokens the swapper will receive\n     * @return uint256 feeSingleSwap - Liq fee collected in the first swap\n     * @return uint256 feeDoubleSwap - Liq fee collected in the second step of the double swap\n     */\n    function caculateSwapEmission(address _from, address _to, uint256 _value) \n    external \n    view\n    returns (uint256 tokensEmitted, uint256 feeSingleSwap, uint256 feeDoubleSwap) {\n        require(_value > 0, \"Swap input must be non zero value\");\n\n        (tokensEmitted, feeSingleSwap, feeDoubleSwap) = (0,0,0);\n        (uint256 emission, uint256 liqFees) = (0,0);\n\n        if(_from == address(CAN) || _to == address(CAN)){\n            ( , emission, liqFees) = _calculateSwapOutput(_from, _to, _value);\n            tokensEmitted = emission;\n            feeSingleSwap = liqFees;\n        } else {\n            ( , uint256 initialEmission, uint256 initialLiqFees) = _calculateSwapOutput(_from, address(CAN), _value);\n            feeSingleSwap = initialLiqFees;\n            ( , emission, feeDoubleSwap) = _calculateSwapOutput(address(CAN), _to, initialEmission);\n            tokensEmitted = emission;\n        }\n    }\n        \n    /**\n     * @dev Perform swap and return funds to recipient\n     * @param _from Token to swap from\n     * @param _to Token the user will receive as output\n     * @param _value Amount of _from token used as deposit\n     * @param _recipient Address that the output funds will be sent to\n     */\n    function swapAndSend(address _from, address _to, uint256 _value, address payable _recipient) \n    public \n    payable {\n        require(_recipient != address(0), \"Recipient must be non empty address\");\n        _swapAndSend(_from, _to, _value, _recipient);\n    }\n    \n    /**\n     * @dev Internal swap and transfer function\n     * @param _from Token to swap from\n     * @param _to Token the user will receive as output\n     * @param _value Amount of _from token used as deposit\n     * @param _recipient Address that the output funds will be sent to\n     * @return bool Success of the swap\n     */\n    function _swapAndSend(address _from, address _to, uint256 _value, address payable _recipient) \n    private\n    poolIsActiveOrBase(_from)\n    poolIsActiveOrBase(_to) {        \n        require(_value > 0, \"Must be attempting to swap a non zero amount of tokens\");\n\n        if(_from == address(0)){\n            require(msg.value == _value, \"Sender must send ETH as payment\");\n        } else {\n            IERC20 token = IERC20(_from);                                        \n            require(token.transferFrom(msg.sender, address(this), _value), \"Sender must have approved the TKN transfer\");\n        }\n\n        uint256 swapEmission;\n\n        if(_from == address(CAN) || _to == address(CAN)){\n            swapEmission = _executeSwap(_from, _to, _value);\n        } else {\n            uint256 initialswapEmission = _executeSwap(_from, address(CAN), _value);\n            swapEmission = _executeSwap(address(CAN), _to, initialswapEmission);\n        }\n\n        require(swapEmission > 0, \"Must be some swap output\");\n\n        if(_to == address(0)) {\n            require(address(this).balance >= swapEmission, \"Contract must have enough ETH to pay recipient\");\n            _recipient.transfer(swapEmission);\n        }else {\n            IERC20 outputToken = IERC20(_to);\n            require(outputToken.transfer(_recipient, swapEmission), \"Contract must release tokens to recipient\");\n        }\n\n        emit eventSwapExecuted(_from, _to, msg.sender, _recipient, _value, swapEmission);\n    }\n\n    /**\n     * @dev Internal swap execution\n     * @param _from Token to swap from\n     * @param _to Token the user will receive as output\n     * @param _value Amount of _from token used as deposit\n     * @return uint256 Amount of tokens to emit from the swap\n     */\n    function _executeSwap(address _from, address _to, uint256 _value)\n    private\n    returns (uint256) {\n        bool fromCan = _from == address(CAN);\n        address poolId = fromCan ? _to : _from;\n\n        (uint256 output, uint256 emission, uint256 liqFee) = _calculateSwapOutput(_from, _to, _value);\n\n        if(fromCan){\n            mapPoolBalances[poolId].balCAN = mapPoolBalances[poolId].balCAN.add(_value);\n            mapPoolBalances[poolId].balTKN = mapPoolBalances[poolId].balTKN.sub(output);\n            mapPoolFees[poolId].feeTKN = mapPoolFees[poolId].feeTKN.add(liqFee);\n        } else {\n            mapPoolBalances[poolId].balTKN = mapPoolBalances[poolId].balTKN.add(_value);\n            mapPoolBalances[poolId].balCAN = mapPoolBalances[poolId].balCAN.sub(output);\n            mapPoolFees[poolId].feeCAN = mapPoolFees[poolId].feeCAN.add(liqFee);\n        }\n        \n        return emission;\n    }\n\n    /**\n     * @dev Internal swap calculation\n     * @param _from Token to swap from\n     * @param _to Token the user will receive as output\n     * @param _value Amount of _from token used as deposit\n     * @return uint256 Total output from swap\n     * @return uint256 Liquidity fee to subtract from output\n     */\n    function _calculateSwapOutput(address _from, address _to, uint256 _value)\n    private\n    view\n    returns (uint256 output, uint256 emission, uint256 liqFee) {\n        bool fromCan = _from == address(CAN);\n        address pool = fromCan ? _to : _from;\n\n        uint256 balFrom = _getPoolBalance(pool, fromCan);\n        uint256 balTo = _getPoolBalance(pool, !fromCan);\n        \n        return CanSwapMath.calculateSwapOutput(_value, balFrom, balTo);\n    }\n    \n\n    /**\n     * @dev Internal func to get balance of one side of pool\n     * @param _pool Token address of the pool\n     * @param _base Bool - get base currency balance (CAN)?\n     * @return uint256 Balance on this side of the pool\n     */\n    function _getPoolBalance(address _pool, bool _base)\n    private\n    view\n    returns (uint256 _balance) {\n        return _base ? mapPoolBalances[_pool].balCAN : mapPoolBalances[_pool].balTKN;\n    }\n\n\n    /**\n     * @dev Get pool details for use on client\n     * @param _pool Token address of the pool\n     * @return string uri - Pool URI\n     * @return string api - Pool API\n     * @return bool active - Is pool currently active? \n     * @return uint8 minimum stake percentage \n     */\n    function getPoolMeta(address _pool)\n    public\n    view\n    poolExists(_pool)\n    returns (\n        string memory uri,\n        string memory api,\n        bool active,\n        uint8 minimumStake\n    ) {\n        PoolDetails memory details = mapPoolDetails[_pool];\n        PoolStatus memory status = mapPoolStatus[_pool];\n        return (details.uri, details.api, status.active, mapPoolMinimumStake[_pool]); \n    }\n\n    /**\n     * @dev Get pool details for use on client\n     * @param _poolId of the pool\n     */\n    function getPoolMetaById(uint16 _poolId)\n    external\n    view\n    returns (\n        address token,\n        string memory uri,\n        string memory api,\n        bool active,\n        uint8 minimumStake\n    ) {          \n        token = mapIndexToPool[_poolId];\n        (uri, api, active, minimumStake) = getPoolMeta(token);\n    }\n\n\n    /**\n     * @dev Get pool balance for use on client\n     * @param _pool Token address of the pool\n     * @return uint256 balTKN - Balance on TKN side of pool\n     * @return uint256 balCAN - Balance on CAN side of pool\n     * @return uint256 feeTKN - Unallocated fees on TKN side \n     * @return uint256 feeCAN - Unallocated fees on CAN side\n     */\n    function getPoolBalance(address _pool)\n    public\n    view\n    poolExists(_pool)\n    returns (\n        uint256 balTKN,\n        uint256 balCAN,\n        uint256 feeTKN,\n        uint256 feeCAN\n    ) {\n        PoolBalance memory balance = mapPoolBalances[_pool];\n        PoolFees memory fees = mapPoolFees[_pool];\n        return (balance.balTKN, balance.balCAN, fees.feeTKN, fees.feeCAN); \n    }\n\n    /**\n     * @dev Get pool balances for use on client\n     */\n    function getPoolBalances()\n    external\n    view\n    returns (\n        address[] memory token,\n        bool[] memory active,\n        uint256[] memory balTKN,\n        uint256[] memory balCAN,\n        uint256[] memory feeTKN,\n        uint256[] memory feeCAN\n    ) {\n        token = new address[](poolCount);\n        active = new bool[](poolCount);\n        balTKN = new uint256[](poolCount);\n        balCAN = new uint256[](poolCount);\n        feeTKN = new uint256[](poolCount);\n        feeCAN = new uint256[](poolCount);\n        for(uint16 i = 0; i < poolCount; i++){\n          token[i] = mapIndexToPool[i];\n          PoolStatus memory status = mapPoolStatus[token[i]];\n          active[i] = status.active;\n          (balTKN[i], balCAN[i], feeTKN[i], feeCAN[i]) = getPoolBalance(token[i]);\n        }\n        return (token, active, balTKN, balCAN, feeTKN, feeCAN);\n    }\n\n    /**\n     * @dev Get a list of pools the staker is associated with\n     * @param _staker Staker address\n     * @return address[] Pool addresses\n     * @return uint256[] Staker stakeTKN\n     * @return uint256[] Staker stakeCAN\n     * @return uint256[] Staker rewardTKN\n     * @return uint256[] Staker rewardCAN\n     */\n    function getStakersPools(address _staker)\n    external\n    view\n    returns (\n      address[] memory pools,\n      uint256[] memory stakeTKN,\n      uint256[] memory stakeCAN,\n      uint256[] memory rewardTKN,\n      uint256[] memory rewardCAN\n      ) {\n        uint16 stakerPoolCount = mapStakerPoolCount[_staker];\n\n        pools = new address[](stakerPoolCount);\n        stakeTKN = new uint256[](stakerPoolCount);\n        stakeCAN = new uint256[](stakerPoolCount);\n        rewardTKN = new uint256[](stakerPoolCount);\n        rewardCAN = new uint256[](stakerPoolCount);\n        for(uint16 i = 0; i < stakerPoolCount; i++){\n            pools[i] = mapStakerPools[_staker][i];\n            (stakeTKN[i], stakeCAN[i], rewardTKN[i], rewardCAN[i]) = getStakersStake(pools[i], _staker);\n        }\n        return (pools, stakeTKN, stakeCAN, rewardTKN, rewardCAN);\n    }\n\n    /**\n     * @dev Get stakers stake in a particular pool\n     * @param _pool Token address of the pool\n     * @param _staker Staker address\n     * @return uint256 Stake in TKN side of pool\n     * @return uint256 Stake in CAN side of pool\n     * @return uint256 Rewards allocated in TKN side of pool\n     * @return uint256 Rewards allocated in CAN side of pool\n     */\n    function getStakersStake(address _pool, address _staker)\n    public\n    view\n    onlyActiveStaker(_pool, _staker)\n    returns (\n        uint256 stakeTKN,\n        uint256 stakeCAN,\n        uint256 rewardTKN,\n        uint256 rewardCAN\n    ) {\n        PoolStake memory stake = mapPoolStakes[_pool][_staker];\n        PoolStakeRewards memory rewards = mapPoolStakeRewards[_pool][_staker];\n        if(rewards.rewardTKN >= 1) {\n            rewards.rewardTKN.sub(1);\n        }\n        if(rewards.rewardCAN >= 1){\n            rewards.rewardCAN.sub(1);\n        }\n        return (stake.stakeTKN, stake.stakeCAN, rewards.rewardTKN, rewards.rewardCAN);\n    }\n}\n\n",
  "sourcePath": "/home/alex/projects/canya/canswap/canswap-contracts/contracts/CanSwap.sol",
  "compiler": {
    "name": "solc",
    "version": "0.5.3+commit.10d17f24.Emscripten.clang"
  },
  "schemaVersion": "3.0.1",
  "updatedAt": "2019-02-06T05:40:37.498Z",
  "devdoc": {
    "details": "Continuous liquidity pools to allow on-chain conversions of tokens and ether into and out of CAN. The continuous liquidity pools are permissionless; anyone can add or remove liquidity and anyone can use the pools to convert between assets Satisfies requirements outlined in WhitePaper, with a number of technical compromises - https://github.com/canyaio/canswap-contracts/blob/master/resources/Whitepaper.pdf",
    "methods": {
      "activatePool(address)": {
        "details": "Activate the pool. Executed by contract owner",
        "params": {
          "_pool": "Address of token for pool"
        }
      },
      "addStakeInPool(address,uint256,uint256)": {
        "details": "Add an additional stake to a pool you stake in. Requires transfer approval",
        "params": {
          "_amountCan": "Address of CanYaCoins to add to stake",
          "_amountTkn": "Amount of tokens to add to stake",
          "_pool": "Address of token for pool"
        },
        "return": "bool success - Success of function execution"
      },
      "allocateFees(address)": {
        "details": "Allocates fees accumulated in a pool to the stakers based on their pool share",
        "params": {
          "_pool": "Token address of the pool"
        }
      },
      "caculateSwapEmission(address,address,uint256)": {
        "details": "Calculate token emission from Swap function",
        "params": {
          "_from": "Token to swap from",
          "_to": "Token the user will receive as output",
          "_value": "Amount of _from token used as deposit"
        },
        "return": "uint256 tokensEmitted - Value of tokens the swapper will receiveuint256 feeSingleSwap - Liq fee collected in the first swapuint256 feeDoubleSwap - Liq fee collected in the second step of the double swap"
      },
      "createPoolForToken(address,string,string,uint256,uint256)": {
        "details": "Create a liquidity pool paired with CAN and perform initial stake. Requires transfer approval",
        "params": {
          "_amountCan": "Initial CanYaCoin stake",
          "_amountTkn": "Initial token stake",
          "_api": "API to associate with the token pool",
          "_token": "Token from which to create pool",
          "_uri": "URI to associate with the token pool"
        }
      },
      "deactivatePool(address)": {
        "details": "De-activate the pool. Executed by contract owner",
        "params": {
          "_pool": "Address of token for pool"
        }
      },
      "getAllocationReward(address)": {
        "details": "Calculate the reward msg.sender can expect from re allocating the fees",
        "params": {
          "_pool": "Token address of the pool"
        },
        "return": "uint256 rewardTKN - How much of the accumulated TKN fees the staker will getuint256 rewardCAN - How much of the accumulated CAN fees the staker will get "
      },
      "getPoolBalance(address)": {
        "details": "Get pool balance for use on client",
        "params": {
          "_pool": "Token address of the pool"
        },
        "return": "uint256 balTKN - Balance on TKN side of pooluint256 balCAN - Balance on CAN side of pooluint256 feeTKN - Unallocated fees on TKN side uint256 feeCAN - Unallocated fees on CAN side"
      },
      "getPoolBalances()": {
        "details": "Get pool balances for use on client"
      },
      "getPoolMeta(address)": {
        "details": "Get pool details for use on client",
        "params": {
          "_pool": "Token address of the pool"
        },
        "return": "string uri - Pool URIstring api - Pool APIbool active - Is pool currently active? uint8 minimum stake percentage "
      },
      "getPoolMetaById(uint16)": {
        "details": "Get pool details for use on client",
        "params": {
          "_poolId": "of the pool"
        }
      },
      "getStakersPools(address)": {
        "details": "Get a list of pools the staker is associated with",
        "params": {
          "_staker": "Staker address"
        },
        "return": "address[] Pool addressesuint256[] Staker stakeTKNuint256[] Staker stakeCANuint256[] Staker rewardTKNuint256[] Staker rewardCAN"
      },
      "getStakersStake(address,address)": {
        "details": "Get stakers stake in a particular pool",
        "params": {
          "_pool": "Token address of the pool",
          "_staker": "Staker address"
        },
        "return": "uint256 Stake in TKN side of pooluint256 Stake in CAN side of pooluint256 Rewards allocated in TKN side of pooluint256 Rewards allocated in CAN side of pool"
      },
      "initialize(address)": {
        "details": "Constructor",
        "params": {
          "_canToken": "Address of the base token to be used across all pools"
        }
      },
      "isOwner()": {
        "return": "true if `msg.sender` is the owner of the contract."
      },
      "owner()": {
        "return": "the address of the owner."
      },
      "renounceOwnership()": {
        "details": "Allows the current owner to relinquish control of the contract."
      },
      "stakeInPool(address,uint256,uint256)": {
        "details": "Perform stake in pool. Requires transfer approval. New or returning stakers must run allocate fees",
        "params": {
          "_amountCan": "Address of CanYaCoins to stake",
          "_amountTkn": "Amount of tokens to stake",
          "_pool": "Address of token for pool"
        }
      },
      "swap(address,address,uint256)": {
        "details": "Perform swap and return funds to sender",
        "params": {
          "_from": "Token to swap from",
          "_to": "Token the user will receive as output",
          "_value": "Amount of _from token used as deposit"
        }
      },
      "swapAndSend(address,address,uint256,address)": {
        "details": "Perform swap and return funds to recipient",
        "params": {
          "_from": "Token to swap from",
          "_recipient": "Address that the output funds will be sent to",
          "_to": "Token the user will receive as output",
          "_value": "Amount of _from token used as deposit"
        }
      },
      "transferOwnership(address)": {
        "details": "Allows the current owner to transfer control of the contract to a newOwner.",
        "params": {
          "newOwner": "The address to transfer ownership to."
        }
      },
      "updateMinimumStakeThreshold(address,uint8)": {
        "details": "Set minimum staking threshold",
        "params": {
          "_threshold": "Percent of prospective pool that must be staked in order to gain access"
        }
      },
      "updatePoolDetails(address,string,string)": {
        "details": "Update meta properties for a pool",
        "params": {
          "_api": "Updated API to associate with the token pool",
          "_uri": "Updated URI to associate with the token pool"
        }
      },
      "withdrawFees(address)": {
        "details": "Withdraws an active stakers accumulated fees for a particular pool",
        "params": {
          "_pool": "Token address of the pool"
        }
      },
      "withdrawFromPool(address)": {
        "details": "Withdraw my stake and fees from the pool",
        "params": {
          "_pool": "Token address of the pool"
        }
      }
    },
    "title": "CanSwap liqudity pools"
  },
  "userdoc": {
    "methods": {
      "renounceOwnership()": {
        "notice": "Renouncing to ownership will leave the contract without an owner. It will not be possible to call the functions with the `onlyOwner` modifier anymore."
      }
    }
  }
}