{
  "contractName": "Ownable",
  "abi": [
    {
      "anonymous": false,
      "inputs": [
        {
          "indexed": true,
          "name": "previousOwner",
          "type": "address"
        }
      ],
      "name": "OwnershipRenounced",
      "type": "event"
    },
    {
      "anonymous": false,
      "inputs": [
        {
          "indexed": true,
          "name": "previousOwner",
          "type": "address"
        },
        {
          "indexed": true,
          "name": "newOwner",
          "type": "address"
        }
      ],
      "name": "OwnershipTransferred",
      "type": "event"
    },
    {
      "constant": false,
      "inputs": [
        {
          "name": "sender",
          "type": "address"
        }
      ],
      "name": "initialize",
      "outputs": [],
      "payable": false,
      "stateMutability": "nonpayable",
      "type": "function"
    },
    {
      "constant": true,
      "inputs": [],
      "name": "owner",
      "outputs": [
        {
          "name": "",
          "type": "address"
        }
      ],
      "payable": false,
      "stateMutability": "view",
      "type": "function"
    },
    {
      "constant": true,
      "inputs": [],
      "name": "isOwner",
      "outputs": [
        {
          "name": "",
          "type": "bool"
        }
      ],
      "payable": false,
      "stateMutability": "view",
      "type": "function"
    },
    {
      "constant": false,
      "inputs": [],
      "name": "renounceOwnership",
      "outputs": [],
      "payable": false,
      "stateMutability": "nonpayable",
      "type": "function"
    },
    {
      "constant": false,
      "inputs": [
        {
          "name": "newOwner",
          "type": "address"
        }
      ],
      "name": "transferOwnership",
      "outputs": [],
      "payable": false,
      "stateMutability": "nonpayable",
      "type": "function"
    }
  ],
  "bytecode": "0x608060405234801561001057600080fd5b5061036e806100206000396000f3fe608060405234801561001057600080fd5b5060043610610073577c01000000000000000000000000000000000000000000000000000000006000350463715018a681146100785780638da5cb5b146100825780638f32d59b146100a6578063c4d66de8146100c2578063f2fde38b146100e8575b600080fd5b61008061010e565b005b61008a610178565b60408051600160a060020a039092168252519081900360200190f35b6100ae610187565b604080519115158252519081900360200190f35b610080600480360360208110156100d857600080fd5b5035600160a060020a0316610198565b610080600480360360208110156100fe57600080fd5b5035600160a060020a0316610271565b610116610187565b151561012157600080fd5b603354604051600160a060020a03909116907ff8df31144d9c2f0f6b59d69b8b98abd5459d07f2742c4df920b25aae33c6482090600090a26033805473ffffffffffffffffffffffffffffffffffffffff19169055565b603354600160a060020a031690565b603354600160a060020a0316331490565b600054610100900460ff16806101b157506101b1610290565b806101bf575060005460ff16155b1515610216576040517f08c379a000000000000000000000000000000000000000000000000000000000815260040180806020018281038252602e815260200180610315602e913960400191505060405180910390fd5b600080546033805473ffffffffffffffffffffffffffffffffffffffff1916600160a060020a03949094169390931790925561ff001980831661010090811760ff19166001179091169281900460ff16151502919091179055565b610279610187565b151561028457600080fd5b61028d81610296565b50565b303b1590565b600160a060020a03811615156102ab57600080fd5b603354604051600160a060020a038084169216907f8be0079c531659141344cd1fd0a4f28419497f9722a3daafe3b4186f6b6457e090600090a36033805473ffffffffffffffffffffffffffffffffffffffff1916600160a060020a039290921691909117905556fe436f6e747261637420696e7374616e63652068617320616c7265616479206265656e20696e697469616c697a6564a165627a7a72305820b0526e97d02900b857cb213622001e1643a8dcaa971664e524668c5fe871d2e50029",
  "source": "pragma solidity ^0.5.1;\n\nimport \"./Initializable.sol\";\n\n/**\n * @title Ownable\n * @dev The Ownable contract has an owner address, and provides basic authorization control\n * functions, this simplifies the implementation of \"user permissions\".\n */\ncontract Ownable is Initializable {\n    address private _owner;\n\n\n    event OwnershipRenounced(address indexed previousOwner);\n    event OwnershipTransferred(address indexed previousOwner, address indexed newOwner);\n\n\n    /**\n    * @dev The Ownable constructor sets the original `owner` of the contract to the sender\n    * account.\n    */\n    function initialize(address sender) public initializer {\n        _owner = sender;\n    }\n\n    /**\n    * @return the address of the owner.\n    */\n    function owner() public view returns(address) {\n        return _owner;\n    }\n\n    /**\n    * @dev Throws if called by any account other than the owner.\n    */\n    modifier onlyOwner() {\n        require(isOwner());\n        _;\n    }\n\n    /**\n    * @return true if `msg.sender` is the owner of the contract.\n    */\n    function isOwner() public view returns(bool) {\n        return msg.sender == _owner;\n    }\n\n    /**\n    * @dev Allows the current owner to relinquish control of the contract.\n    * @notice Renouncing to ownership will leave the contract without an owner.\n    * It will not be possible to call the functions with the `onlyOwner`\n    * modifier anymore.\n    */\n    function renounceOwnership() public onlyOwner {\n        emit OwnershipRenounced(_owner);\n        _owner = address(0);\n    }\n\n    /**\n    * @dev Allows the current owner to transfer control of the contract to a newOwner.\n    * @param newOwner The address to transfer ownership to.\n    */\n    function transferOwnership(address newOwner) public onlyOwner {\n        _transferOwnership(newOwner);\n    }\n\n    /**\n    * @dev Transfers control of the contract to a newOwner.\n    * @param newOwner The address to transfer ownership to.\n    */\n    function _transferOwnership(address newOwner) internal {\n        require(newOwner != address(0));\n        emit OwnershipTransferred(_owner, newOwner);\n        _owner = newOwner;\n    }\n}\n",
  "sourcePath": "/home/alex/projects/canya/canswap/canswap-contracts/contracts/Ownable.sol",
  "compiler": {
    "name": "solc",
    "version": "0.5.3+commit.10d17f24.Emscripten.clang"
  },
  "schemaVersion": "3.0.1",
  "updatedAt": "2019-02-06T05:40:37.510Z",
  "devdoc": {
    "details": "The Ownable contract has an owner address, and provides basic authorization control functions, this simplifies the implementation of \"user permissions\".",
    "methods": {
      "initialize(address)": {
        "details": "The Ownable constructor sets the original `owner` of the contract to the sender account."
      },
      "isOwner()": {
        "return": "true if `msg.sender` is the owner of the contract."
      },
      "owner()": {
        "return": "the address of the owner."
      },
      "renounceOwnership()": {
        "details": "Allows the current owner to relinquish control of the contract."
      },
      "transferOwnership(address)": {
        "details": "Allows the current owner to transfer control of the contract to a newOwner.",
        "params": {
          "newOwner": "The address to transfer ownership to."
        }
      }
    },
    "title": "Ownable"
  },
  "userdoc": {
    "methods": {
      "renounceOwnership()": {
        "notice": "Renouncing to ownership will leave the contract without an owner. It will not be possible to call the functions with the `onlyOwner` modifier anymore."
      }
    }
  }
}